{
  "address": "0x788AE3b5D153d49F8DB649aacbA1857f744b739e",
  "abi": [
    {
      "inputs": [
        {
          "internalType": "uint256",
          "name": "_taxRate",
          "type": "uint256"
        },
        {
          "internalType": "address",
          "name": "_taxCollectorAddress",
          "type": "address"
        }
      ],
      "stateMutability": "nonpayable",
      "type": "constructor"
    },
    {
      "anonymous": false,
      "inputs": [
        {
          "indexed": true,
          "internalType": "address",
          "name": "owner",
          "type": "address"
        },
        {
          "indexed": true,
          "internalType": "address",
          "name": "spender",
          "type": "address"
        },
        {
          "indexed": false,
          "internalType": "uint256",
          "name": "value",
          "type": "uint256"
        }
      ],
      "name": "Approval",
      "type": "event"
    },
    {
      "anonymous": false,
      "inputs": [
        {
          "indexed": true,
          "internalType": "address",
          "name": "previousOperator",
          "type": "address"
        },
        {
          "indexed": true,
          "internalType": "address",
          "name": "newOperator",
          "type": "address"
        }
      ],
      "name": "OperatorTransferred",
      "type": "event"
    },
    {
      "anonymous": false,
      "inputs": [
        {
          "indexed": true,
          "internalType": "address",
          "name": "previousOwner",
          "type": "address"
        },
        {
          "indexed": true,
          "internalType": "address",
          "name": "newOwner",
          "type": "address"
        }
      ],
      "name": "OwnershipTransferred",
      "type": "event"
    },
    {
      "anonymous": false,
      "inputs": [
        {
          "indexed": false,
          "internalType": "address",
          "name": "oldAddress",
          "type": "address"
        },
        {
          "indexed": false,
          "internalType": "address",
          "name": "newAddress",
          "type": "address"
        }
      ],
      "name": "TaxOfficeTransferred",
      "type": "event"
    },
    {
      "anonymous": false,
      "inputs": [
        {
          "indexed": true,
          "internalType": "address",
          "name": "from",
          "type": "address"
        },
        {
          "indexed": true,
          "internalType": "address",
          "name": "to",
          "type": "address"
        },
        {
          "indexed": false,
          "internalType": "uint256",
          "name": "value",
          "type": "uint256"
        }
      ],
      "name": "Transfer",
      "type": "event"
    },
    {
      "inputs": [],
      "name": "INITIAL_LAUNCH_DISTRIBUTION",
      "outputs": [
        {
          "internalType": "uint256",
          "name": "",
          "type": "uint256"
        }
      ],
      "stateMutability": "view",
      "type": "function"
    },
    {
      "inputs": [
        {
          "internalType": "address",
          "name": "owner",
          "type": "address"
        },
        {
          "internalType": "address",
          "name": "spender",
          "type": "address"
        }
      ],
      "name": "allowance",
      "outputs": [
        {
          "internalType": "uint256",
          "name": "",
          "type": "uint256"
        }
      ],
      "stateMutability": "view",
      "type": "function"
    },
    {
      "inputs": [
        {
          "internalType": "address",
          "name": "spender",
          "type": "address"
        },
        {
          "internalType": "uint256",
          "name": "amount",
          "type": "uint256"
        }
      ],
      "name": "approve",
      "outputs": [
        {
          "internalType": "bool",
          "name": "",
          "type": "bool"
        }
      ],
      "stateMutability": "nonpayable",
      "type": "function"
    },
    {
      "inputs": [],
      "name": "autoCalculateTax",
      "outputs": [
        {
          "internalType": "bool",
          "name": "",
          "type": "bool"
        }
      ],
      "stateMutability": "view",
      "type": "function"
    },
    {
      "inputs": [
        {
          "internalType": "address",
          "name": "account",
          "type": "address"
        }
      ],
      "name": "balanceOf",
      "outputs": [
        {
          "internalType": "uint256",
          "name": "",
          "type": "uint256"
        }
      ],
      "stateMutability": "view",
      "type": "function"
    },
    {
      "inputs": [
        {
          "internalType": "uint256",
          "name": "amount",
          "type": "uint256"
        }
      ],
      "name": "burn",
      "outputs": [],
      "stateMutability": "nonpayable",
      "type": "function"
    },
    {
      "inputs": [
        {
          "internalType": "address",
          "name": "account",
          "type": "address"
        },
        {
          "internalType": "uint256",
          "name": "amount",
          "type": "uint256"
        }
      ],
      "name": "burnFrom",
      "outputs": [],
      "stateMutability": "nonpayable",
      "type": "function"
    },
    {
      "inputs": [],
      "name": "burnThreshold",
      "outputs": [
        {
          "internalType": "uint256",
          "name": "",
          "type": "uint256"
        }
      ],
      "stateMutability": "view",
      "type": "function"
    },
    {
      "inputs": [],
      "name": "decimals",
      "outputs": [
        {
          "internalType": "uint8",
          "name": "",
          "type": "uint8"
        }
      ],
      "stateMutability": "view",
      "type": "function"
    },
    {
      "inputs": [
        {
          "internalType": "address",
          "name": "spender",
          "type": "address"
        },
        {
          "internalType": "uint256",
          "name": "subtractedValue",
          "type": "uint256"
        }
      ],
      "name": "decreaseAllowance",
      "outputs": [
        {
          "internalType": "bool",
          "name": "",
          "type": "bool"
        }
      ],
      "stateMutability": "nonpayable",
      "type": "function"
    },
    {
      "inputs": [],
      "name": "disableAutoCalculateTax",
      "outputs": [],
      "stateMutability": "nonpayable",
      "type": "function"
    },
    {
      "inputs": [
        {
          "internalType": "address",
          "name": "_launcherAddress",
          "type": "address"
        }
      ],
      "name": "distributeReward",
      "outputs": [],
      "stateMutability": "nonpayable",
      "type": "function"
    },
    {
      "inputs": [],
      "name": "enableAutoCalculateTax",
      "outputs": [],
      "stateMutability": "nonpayable",
      "type": "function"
    },
    {
      "inputs": [
        {
          "internalType": "address",
          "name": "_address",
          "type": "address"
        }
      ],
      "name": "excludeAddress",
      "outputs": [
        {
          "internalType": "bool",
          "name": "",
          "type": "bool"
        }
      ],
      "stateMutability": "nonpayable",
      "type": "function"
    },
    {
      "inputs": [
        {
          "internalType": "address",
          "name": "",
          "type": "address"
        }
      ],
      "name": "excludedAddresses",
      "outputs": [
        {
          "internalType": "bool",
          "name": "",
          "type": "bool"
        }
      ],
      "stateMutability": "view",
      "type": "function"
    },
    {
      "inputs": [],
      "name": "getTaxTiersRatesCount",
      "outputs": [
        {
          "internalType": "uint256",
          "name": "count",
          "type": "uint256"
        }
      ],
      "stateMutability": "view",
      "type": "function"
    },
    {
      "inputs": [],
      "name": "getTaxTiersTwapsCount",
      "outputs": [
        {
          "internalType": "uint256",
          "name": "count",
          "type": "uint256"
        }
      ],
      "stateMutability": "view",
      "type": "function"
    },
    {
      "inputs": [
        {
          "internalType": "contract IERC20",
          "name": "_token",
          "type": "address"
        },
        {
          "internalType": "uint256",
          "name": "_amount",
          "type": "uint256"
        },
        {
          "internalType": "address",
          "name": "_to",
          "type": "address"
        }
      ],
      "name": "governanceRecoverUnsupported",
      "outputs": [],
      "stateMutability": "nonpayable",
      "type": "function"
    },
    {
      "inputs": [
        {
          "internalType": "address",
          "name": "_address",
          "type": "address"
        }
      ],
      "name": "includeAddress",
      "outputs": [
        {
          "internalType": "bool",
          "name": "",
          "type": "bool"
        }
      ],
      "stateMutability": "nonpayable",
      "type": "function"
    },
    {
      "inputs": [
        {
          "internalType": "address",
          "name": "spender",
          "type": "address"
        },
        {
          "internalType": "uint256",
          "name": "addedValue",
          "type": "uint256"
        }
      ],
      "name": "increaseAllowance",
      "outputs": [
        {
          "internalType": "bool",
          "name": "",
          "type": "bool"
        }
      ],
      "stateMutability": "nonpayable",
      "type": "function"
    },
    {
      "inputs": [
        {
          "internalType": "address",
          "name": "_address",
          "type": "address"
        }
      ],
      "name": "isAddressExcluded",
      "outputs": [
        {
          "internalType": "bool",
          "name": "",
          "type": "bool"
        }
      ],
      "stateMutability": "view",
      "type": "function"
    },
    {
      "inputs": [],
      "name": "isOperator",
      "outputs": [
        {
          "internalType": "bool",
          "name": "",
          "type": "bool"
        }
      ],
      "stateMutability": "view",
      "type": "function"
    },
    {
      "inputs": [],
      "name": "kittyOracle",
      "outputs": [
        {
          "internalType": "address",
          "name": "",
          "type": "address"
        }
      ],
      "stateMutability": "view",
      "type": "function"
    },
    {
      "inputs": [
        {
          "internalType": "address",
          "name": "recipient_",
          "type": "address"
        },
        {
          "internalType": "uint256",
          "name": "amount_",
          "type": "uint256"
        }
      ],
      "name": "mint",
      "outputs": [
        {
          "internalType": "bool",
          "name": "",
          "type": "bool"
        }
      ],
      "stateMutability": "nonpayable",
      "type": "function"
    },
    {
      "inputs": [],
      "name": "name",
      "outputs": [
        {
          "internalType": "string",
          "name": "",
          "type": "string"
        }
      ],
      "stateMutability": "view",
      "type": "function"
    },
    {
      "inputs": [],
      "name": "operator",
      "outputs": [
        {
          "internalType": "address",
          "name": "",
          "type": "address"
        }
      ],
      "stateMutability": "view",
      "type": "function"
    },
    {
      "inputs": [],
      "name": "owner",
      "outputs": [
        {
          "internalType": "address",
          "name": "",
          "type": "address"
        }
      ],
      "stateMutability": "view",
      "type": "function"
    },
    {
      "inputs": [],
      "name": "renounceOwnership",
      "outputs": [],
      "stateMutability": "nonpayable",
      "type": "function"
    },
    {
      "inputs": [],
      "name": "rewardPoolDistributed",
      "outputs": [
        {
          "internalType": "bool",
          "name": "",
          "type": "bool"
        }
      ],
      "stateMutability": "view",
      "type": "function"
    },
    {
      "inputs": [
        {
          "internalType": "uint256",
          "name": "_burnThreshold",
          "type": "uint256"
        }
      ],
      "name": "setBurnThreshold",
      "outputs": [
        {
          "internalType": "bool",
          "name": "",
          "type": "bool"
        }
      ],
      "stateMutability": "nonpayable",
      "type": "function"
    },
    {
      "inputs": [
        {
          "internalType": "address",
          "name": "_kittyOracle",
          "type": "address"
        }
      ],
      "name": "setKittyOracle",
      "outputs": [],
      "stateMutability": "nonpayable",
      "type": "function"
    },
    {
      "inputs": [
        {
          "internalType": "address",
          "name": "_taxCollectorAddress",
          "type": "address"
        }
      ],
      "name": "setTaxCollectorAddress",
      "outputs": [],
      "stateMutability": "nonpayable",
      "type": "function"
    },
    {
      "inputs": [
        {
          "internalType": "address",
          "name": "_taxOffice",
          "type": "address"
        }
      ],
      "name": "setTaxOffice",
      "outputs": [],
      "stateMutability": "nonpayable",
      "type": "function"
    },
    {
      "inputs": [
        {
          "internalType": "uint256",
          "name": "_taxRate",
          "type": "uint256"
        }
      ],
      "name": "setTaxRate",
      "outputs": [],
      "stateMutability": "nonpayable",
      "type": "function"
    },
    {
      "inputs": [
        {
          "internalType": "uint8",
          "name": "_index",
          "type": "uint8"
        },
        {
          "internalType": "uint256",
          "name": "_value",
          "type": "uint256"
        }
      ],
      "name": "setTaxTiersRate",
      "outputs": [
        {
          "internalType": "bool",
          "name": "",
          "type": "bool"
        }
      ],
      "stateMutability": "nonpayable",
      "type": "function"
    },
    {
      "inputs": [
        {
          "internalType": "uint8",
          "name": "_index",
          "type": "uint8"
        },
        {
          "internalType": "uint256",
          "name": "_value",
          "type": "uint256"
        }
      ],
      "name": "setTaxTiersTwap",
      "outputs": [
        {
          "internalType": "bool",
          "name": "",
          "type": "bool"
        }
      ],
      "stateMutability": "nonpayable",
      "type": "function"
    },
    {
      "inputs": [],
      "name": "symbol",
      "outputs": [
        {
          "internalType": "string",
          "name": "",
          "type": "string"
        }
      ],
      "stateMutability": "view",
      "type": "function"
    },
    {
      "inputs": [],
      "name": "taxCollectorAddress",
      "outputs": [
        {
          "internalType": "address",
          "name": "",
          "type": "address"
        }
      ],
      "stateMutability": "view",
      "type": "function"
    },
    {
      "inputs": [],
      "name": "taxOffice",
      "outputs": [
        {
          "internalType": "address",
          "name": "",
          "type": "address"
        }
      ],
      "stateMutability": "view",
      "type": "function"
    },
    {
      "inputs": [],
      "name": "taxRate",
      "outputs": [
        {
          "internalType": "uint256",
          "name": "",
          "type": "uint256"
        }
      ],
      "stateMutability": "view",
      "type": "function"
    },
    {
      "inputs": [
        {
          "internalType": "uint256",
          "name": "",
          "type": "uint256"
        }
      ],
      "name": "taxTiersRates",
      "outputs": [
        {
          "internalType": "uint256",
          "name": "",
          "type": "uint256"
        }
      ],
      "stateMutability": "view",
      "type": "function"
    },
    {
      "inputs": [
        {
          "internalType": "uint256",
          "name": "",
          "type": "uint256"
        }
      ],
      "name": "taxTiersTwaps",
      "outputs": [
        {
          "internalType": "uint256",
          "name": "",
          "type": "uint256"
        }
      ],
      "stateMutability": "view",
      "type": "function"
    },
    {
      "inputs": [],
      "name": "totalSupply",
      "outputs": [
        {
          "internalType": "uint256",
          "name": "",
          "type": "uint256"
        }
      ],
      "stateMutability": "view",
      "type": "function"
    },
    {
      "inputs": [
        {
          "internalType": "address",
          "name": "recipient",
          "type": "address"
        },
        {
          "internalType": "uint256",
          "name": "amount",
          "type": "uint256"
        }
      ],
      "name": "transfer",
      "outputs": [
        {
          "internalType": "bool",
          "name": "",
          "type": "bool"
        }
      ],
      "stateMutability": "nonpayable",
      "type": "function"
    },
    {
      "inputs": [
        {
          "internalType": "address",
          "name": "sender",
          "type": "address"
        },
        {
          "internalType": "address",
          "name": "recipient",
          "type": "address"
        },
        {
          "internalType": "uint256",
          "name": "amount",
          "type": "uint256"
        }
      ],
      "name": "transferFrom",
      "outputs": [
        {
          "internalType": "bool",
          "name": "",
          "type": "bool"
        }
      ],
      "stateMutability": "nonpayable",
      "type": "function"
    },
    {
      "inputs": [
        {
          "internalType": "address",
          "name": "newOperator_",
          "type": "address"
        }
      ],
      "name": "transferOperator",
      "outputs": [],
      "stateMutability": "nonpayable",
      "type": "function"
    },
    {
      "inputs": [
        {
          "internalType": "address",
          "name": "newOwner",
          "type": "address"
        }
      ],
      "name": "transferOwnership",
      "outputs": [],
      "stateMutability": "nonpayable",
      "type": "function"
    }
  ],
  "transactionHash": "0xe37d3477a21ce12153327e2567d0387c90bc01d2992ceaa52e594f6af5400040",
  "args": [
    0,
    "0x6DDf58a4B4CD517D874D10cddddb61d3dc895978"
  ],
  "solcInputHash": "d63e44ed8deab339d0eca9c31360ed01",
  "bytecode": "0x6006805460ff60a01b19169055670f43fc2c04ee0000600a819055610240604052600060809081526706f05b59d3b2000060a052670853a0d2313c000060c0526709b6e64a8ec6000060e052670b1a2bc2ec50000061010052670c7d713b49da000061012052670d2f13f7789f000061014052670de0b6b3a764000061016052670e92596fd6290000610180526101a0919091526710a741a4627800006101c05267120a871cc00200006101e05267136dcc951d8c0000610200526714d1120d7b16000061022052620000d790600c90600e62000646565b50604080516101c0810182526107d0815261076c6020820152610708918101919091526106a4606082015261064060808201526105dc60a0820181905260c0820181905260e0820181905261010082015261057861012082015261038461014082015261019061016082015260c861018082015260646101a08201526200016390600d90600e620006a1565b503480156200017157600080fd5b5060405162002f4c38038062002f4c833981810160405260408110156200019757600080fd5b5080516020918201516040805180820182526005808252644b4954545960d81b8287018181528451808601909552918452958301959095528051939492939092620001e69160039190620006e5565b508051620001fc906004906020840190620006e5565b50506005805460ff1916601217905550600062000218620003ad565b60058054610100600160a81b0319166101006001600160a01b03841690810291909117909155604051919250906000907f8be0079c531659141344cd1fd0a4f28419497f9722a3daafe3b4186f6b6457e0908290a35062000278620003ad565b600680546001600160a01b0319166001600160a01b0392831617908190556040519116906000907f74da04524d50c64947f5dd5381ef1a4dca5cba8ed1d816243f9e48aa0b5617ed908290a361271082106200031b576040805162461bcd60e51b815260206004820152601b60248201527f74617820657175616c206f722062696767657220746f20313030250000000000604482015290519081900360640190fd5b6001600160a01b038116620003625760405162461bcd60e51b815260040180806020018281038252602e81526020018062002ef2602e913960400191505060405180910390fd5b6200036d30620003b1565b506200038233670de0b6b3a7640000620004a8565b600991909155600b80546001600160a01b0319166001600160a01b039092169190911790556200076f565b3390565b6000620003bd620005b7565b80620003d357506008546001600160a01b031633145b620004105760405162461bcd60e51b815260040180806020018281038252602c81526020018062002f20602c913960400191505060405180910390fd5b6001600160a01b0382166000908152600e602052604090205460ff16156200047f576040805162461bcd60e51b815260206004820152601960248201527f616464726573732063616e2774206265206578636c7564656400000000000000604482015290519081900360640190fd5b506001600160a01b03166000908152600e60205260409020805460ff1916600190811790915590565b6001600160a01b03821662000504576040805162461bcd60e51b815260206004820152601f60248201527f45524332303a206d696e7420746f20746865207a65726f206164647265737300604482015290519081900360640190fd5b6200051260008383620005df565b6200052e81600254620005e460201b620019c11790919060201c565b6002556001600160a01b0382166000908152602081815260409091205462000561918390620019c1620005e4821b17901c565b6001600160a01b0383166000818152602081815260408083209490945583518581529351929391927fddf252ad1be2c89b69c2b068fc378daa952ba7f163c4a11628f55a4df523b3ef9281900390910190a35050565b6006546000906001600160a01b0316620005d0620003ad565b6001600160a01b031614905090565b505050565b6000828201838110156200063f576040805162461bcd60e51b815260206004820152601b60248201527f536166654d6174683a206164646974696f6e206f766572666c6f770000000000604482015290519081900360640190fd5b9392505050565b8280548282559060005260206000209081019282156200068f579160200282015b828111156200068f57825182906001600160401b031690559160200191906001019062000667565b506200069d92915062000758565b5090565b8280548282559060005260206000209081019282156200068f579160200282015b828111156200068f578251829061ffff16905591602001919060010190620006c2565b828054600181600116156101000203166002900490600052602060002090601f016020900481019282601f106200072857805160ff19168380011785556200068f565b828001600101855582156200068f579182015b828111156200068f5782518255916020019190600101906200073b565b5b808211156200069d576000815560010162000759565b612773806200077f6000396000f3fe608060405234801561001057600080fd5b50600436106102955760003560e01c8063715018a611610167578063a9059cbb116100ce578063cf011b2611610087578063cf011b261461077a578063dd62ed3e146107a0578063ebca1bd9146107ce578063ee2a9535146107f4578063f2fde38b146107fc578063ff87fc7c1461082257610295565b8063a9059cbb146106d5578063b87c5a4a14610701578063b925fed814610727578063bc94cf431461072f578063c3bdf61314610755578063c6d69a301461075d57610295565b8063939ba2a411610120578063939ba2a41461066c57806395d89b41146106745780639662676c1461067c5780639d6b5f2114610684578063a457c2d7146106a1578063a6431bba146106cd57610295565b8063715018a6146105fa578063771a3a1d1461060257806379cc67901461060a5780638d3cc818146106365780638da5cb5b1461063e57806393995d4b1461064657610295565b806340c10f191161020b578063570ca735116101c4578063570ca7351461055b5780635c29908d1461056357806365bbacd91461058057806366206ce91461058857806369356d47146105ae57806370a08231146105d457610295565b806340c10f19146104af57806342966c68146104db57806342c6b4f1146104f85780634456eda2146105155780634f6d38d01461051d57806354575af41461052557610295565b806329605e771161025d57806329605e77146103cf578063313ce567146103f55780633758e6ce1461041357806339509351146104395780633e5f13d4146104655780633f07d76a1461048957610295565b806306fdde031461029a578063092193ab14610317578063095ea7b31461033f57806318160ddd1461037f57806323b872dd14610399575b600080fd5b6102a261082a565b6040805160208082528351818301528351919283929083019185019080838360005b838110156102dc5781810151838201526020016102c4565b50505050905090810190601f1680156103095780820380516001836020036101000a031916815260200191505b509250505060405180910390f35b61033d6004803603602081101561032d57600080fd5b50356001600160a01b03166108c1565b005b61036b6004803603604081101561035557600080fd5b506001600160a01b0381351690602001356109e1565b604080519115158252519081900360200190f35b6103876109ff565b60408051918252519081900360200190f35b61036b600480360360608110156103af57600080fd5b506001600160a01b03813581169160208101359091169060400135610a05565b61033d600480360360208110156103e557600080fd5b50356001600160a01b0316610ae0565b6103fd610b5d565b6040805160ff9092168252519081900360200190f35b61036b6004803603602081101561042957600080fd5b50356001600160a01b0316610b66565b61036b6004803603604081101561044f57600080fd5b506001600160a01b038135169060200135610c5b565b61046d610ca9565b604080516001600160a01b039092168252519081900360200190f35b61033d6004803603602081101561049f57600080fd5b50356001600160a01b0316610cb8565b61036b600480360360408110156104c557600080fd5b506001600160a01b038135169060200135610dbf565b61033d600480360360208110156104f157600080fd5b5035610e39565b6103876004803603602081101561050e57600080fd5b5035610e42565b61036b610e60565b610387610e86565b61033d6004803603606081101561053b57600080fd5b506001600160a01b03813581169160208101359160409091013516610e8c565b61046d610f5d565b6103876004803603602081101561057957600080fd5b5035610f6c565b61033d610f79565b61036b6004803603604081101561059e57600080fd5b5060ff8135169060200135610fd5565b61033d600480360360208110156105c457600080fd5b50356001600160a01b031661110b565b610387600480360360208110156105ea57600080fd5b50356001600160a01b03166111bf565b61033d6111da565b61038761129e565b61033d6004803603604081101561062057600080fd5b506001600160a01b0381351690602001356112a4565b61036b6112fb565b61046d61130b565b61036b6004803603602081101561065c57600080fd5b50356001600160a01b031661131f565b61038761140b565b6102a2611418565b61036b611479565b61036b6004803603602081101561069a57600080fd5b5035611489565b61036b600480360360408110156106b757600080fd5b506001600160a01b0381351690602001356114e2565b61038761154a565b61036b600480360360408110156106eb57600080fd5b506001600160a01b038135169060200135611550565b61036b6004803603604081101561071757600080fd5b5060ff8135169060200135611564565b61046d61160d565b61033d6004803603602081101561074557600080fd5b50356001600160a01b031661161c565b61046d6116db565b61033d6004803603602081101561077357600080fd5b50356116ea565b61036b6004803603602081101561079057600080fd5b50356001600160a01b03166117db565b610387600480360360408110156107b657600080fd5b506001600160a01b03813581169160200135166117f0565b61036b600480360360208110156107e457600080fd5b50356001600160a01b031661181b565b610387611839565b61033d6004803603602081101561081257600080fd5b50356001600160a01b031661183f565b61033d61195f565b60038054604080516020601f60026000196101006001881615020190951694909404938401819004810282018101909252828152606093909290918301828280156108b65780601f1061088b576101008083540402835291602001916108b6565b820191906000526020600020905b81548152906001019060200180831161089957829003601f168201915b505050505090505b90565b6006546001600160a01b0316331461090a5760405162461bcd60e51b81526004018080602001828103825260248152602001806125c16024913960400191505060405180910390fd5b600654600160a01b900460ff1615610969576040805162461bcd60e51b815260206004820152601860248201527f6f6e6c792063616e2064697374726962757465206f6e63650000000000000000604482015290519081900360640190fd5b6001600160a01b0381166109b8576040805162461bcd60e51b8152602060048201526011602482015270215f6c61756e636865724164647265737360781b604482015290519081900360640190fd5b6006805460ff60a01b1916600160a01b1790556109de8168056bc75e2d63100000611a22565b50565b60006109f56109ee611b12565b8484611b16565b5060015b92915050565b60025490565b600b5460009081908190600160a01b900460ff1615610a46576000610a28611c02565b9050610a3381611cd6565b9250600a54811015610a4457600191505b505b811580610a6b57506001600160a01b0386166000908152600e602052604090205460ff165b15610a8057610a7b868686611de4565b610a8e565b610a8c86868684611f3f565b505b610ad486610a9a611b12565b610acf8760405180606001604052806028815260200161254760289139610ac88c610ac3611b12565b6117f0565b9190611fb8565b611b16565b50600195945050505050565b610ae8611b12565b6001600160a01b0316610af961130b565b6001600160a01b031614610b54576040805162461bcd60e51b815260206004820181905260248201527f4f776e61626c653a2063616c6c6572206973206e6f7420746865206f776e6572604482015290519081900360640190fd5b6109de8161204f565b60055460ff1690565b6000610b70610e60565b80610b8557506008546001600160a01b031633145b610bc05760405162461bcd60e51b815260040180806020018281038252602c81526020018061269b602c913960400191505060405180910390fd5b6001600160a01b0382166000908152600e602052604090205460ff1615610c2e576040805162461bcd60e51b815260206004820152601960248201527f616464726573732063616e2774206265206578636c7564656400000000000000604482015290519081900360640190fd5b506001600160a01b0381166000908152600e60205260409020805460ff191660019081179091555b919050565b60006109f5610c68611b12565b84610acf8560016000610c79611b12565b6001600160a01b03908116825260208083019390935260409182016000908120918c1681529252902054906119c1565b6008546001600160a01b031681565b610cc0610e60565b80610cd557506008546001600160a01b031633145b610d105760405162461bcd60e51b815260040180806020018281038252602c81526020018061269b602c913960400191505060405180910390fd5b6001600160a01b038116610d555760405162461bcd60e51b81526004018080602001828103825260268152602001806124d36026913960400191505060405180910390fd5b600854604080516001600160a01b039283168152918316602083015280517f75237613d1cfb394eb7979839ecbeacaca4592ef0cf96791979625803948a6019281900390910190a1600880546001600160a01b0319166001600160a01b0392909216919091179055565b6006546000906001600160a01b03163314610e0b5760405162461bcd60e51b81526004018080602001828103825260248152602001806125c16024913960400191505060405180910390fd5b6000610e16846111bf565b9050610e228484611a22565b6000610e2d856111bf565b91909111949350505050565b6109de816120ec565b600c8181548110610e4f57fe5b600091825260209091200154905081565b6006546000906001600160a01b0316610e77611b12565b6001600160a01b031614905090565b600a5481565b6006546001600160a01b03163314610ed55760405162461bcd60e51b81526004018080602001828103825260248152602001806125c16024913960400191505060405180910390fd5b826001600160a01b031663a9059cbb82846040518363ffffffff1660e01b815260040180836001600160a01b0316815260200182815260200192505050602060405180830381600087803b158015610f2c57600080fd5b505af1158015610f40573d6000803e3d6000fd5b505050506040513d6020811015610f5657600080fd5b5050505050565b6006546001600160a01b031690565b600d8181548110610e4f57fe5b6008546001600160a01b03163314610fc6576040805162461bcd60e51b815260206004820152601c602482015260008051602061248d833981519152604482015290519081900360640190fd5b600b805460ff60a01b19169055565b6008546000906001600160a01b03163314611025576040805162461bcd60e51b815260206004820152601c602482015260008051602061248d833981519152604482015290519081900360640190fd5b61102d61154a565b8360ff161061106d5760405162461bcd60e51b815260040180806020018281038252602a8152602001806125e5602a913960400191505060405180910390fd5b60ff83161561109f57600c6001840360ff168154811061108957fe5b9060005260206000200154821161109f57600080fd5b6110b260016110ac61154a565b906120fd565b8360ff1610156110e557600c8360010160ff16815481106110cf57fe5b906000526020600020015482106110e557600080fd5b81600c8460ff16815481106110f657fe5b60009182526020909120015550600192915050565b6008546001600160a01b03163314611158576040805162461bcd60e51b815260206004820152601c602482015260008051602061248d833981519152604482015290519081900360640190fd5b6001600160a01b03811661119d5760405162461bcd60e51b815260040180806020018281038252602e81526020018061256f602e913960400191505060405180910390fd5b600b80546001600160a01b0319166001600160a01b0392909216919091179055565b6001600160a01b031660009081526020819052604090205490565b6111e2611b12565b6001600160a01b03166111f361130b565b6001600160a01b03161461124e576040805162461bcd60e51b815260206004820181905260248201527f4f776e61626c653a2063616c6c6572206973206e6f7420746865206f776e6572604482015290519081900360640190fd5b60055460405160009161010090046001600160a01b0316907f8be0079c531659141344cd1fd0a4f28419497f9722a3daafe3b4186f6b6457e0908390a360058054610100600160a81b0319169055565b60095481565b6006546001600160a01b031633146112ed5760405162461bcd60e51b81526004018080602001828103825260248152602001806125c16024913960400191505060405180910390fd5b6112f7828261215a565b5050565b600b54600160a01b900460ff1681565b60055461010090046001600160a01b031690565b6000611329610e60565b8061133e57506008546001600160a01b031633145b6113795760405162461bcd60e51b815260040180806020018281038252602c81526020018061269b602c913960400191505060405180910390fd5b6001600160a01b0382166000908152600e602052604090205460ff166113e6576040805162461bcd60e51b815260206004820152601960248201527f616464726573732063616e277420626520696e636c7564656400000000000000604482015290519081900360640190fd5b506001600160a01b03166000908152600e60205260409020805460ff19169055600190565b68056bc75e2d6310000081565b60048054604080516020601f60026000196101006001881615020190951694909404938401819004810282018101909252828152606093909290918301828280156108b65780601f1061088b576101008083540402835291602001916108b6565b600654600160a01b900460ff1681565b6008546000906001600160a01b031633146114d9576040805162461bcd60e51b815260206004820152601c602482015260008051602061248d833981519152604482015290519081900360640190fd5b600a9190915590565b60006109f56114ef611b12565b84610acf856040518060600160405280602581526020016126eb6025913960016000611519611b12565b6001600160a01b03908116825260208083019390935260409182016000908120918d16815292529020549190611fb8565b600c5490565b60006109f561155d611b12565b8484611de4565b6008546000906001600160a01b031633146115b4576040805162461bcd60e51b815260206004820152601c602482015260008051602061248d833981519152604482015290519081900360640190fd5b6115bc611839565b8360ff16106115fc5760405162461bcd60e51b815260040180806020018281038252602a8152602001806125e5602a913960400191505060405180910390fd5b81600d8460ff16815481106110f657fe5b6007546001600160a01b031681565b611624610e60565b8061163957506008546001600160a01b031633145b6116745760405162461bcd60e51b815260040180806020018281038252602c81526020018061269b602c913960400191505060405180910390fd5b6001600160a01b0381166116b95760405162461bcd60e51b81526004018080602001828103825260228152602001806126306022913960400191505060405180910390fd5b600780546001600160a01b0319166001600160a01b0392909216919091179055565b600b546001600160a01b031681565b6008546001600160a01b03163314611737576040805162461bcd60e51b815260206004820152601c602482015260008051602061248d833981519152604482015290519081900360640190fd5b600b54600160a01b900460ff16156117805760405162461bcd60e51b81526004018080602001828103825260248152602001806126526024913960400191505060405180910390fd5b61271081106117d6576040805162461bcd60e51b815260206004820152601b60248201527f74617820657175616c206f722062696767657220746f20313030250000000000604482015290519081900360640190fd5b600955565b600e6020526000908152604090205460ff1681565b6001600160a01b03918216600090815260016020908152604080832093909416825291909152205490565b6001600160a01b03166000908152600e602052604090205460ff1690565b600d5490565b611847611b12565b6001600160a01b031661185861130b565b6001600160a01b0316146118b3576040805162461bcd60e51b815260206004820181905260248201527f4f776e61626c653a2063616c6c6572206973206e6f7420746865206f776e6572604482015290519081900360640190fd5b6001600160a01b0381166118f85760405162461bcd60e51b81526004018080602001828103825260268152602001806124456026913960400191505060405180910390fd5b6005546040516001600160a01b0380841692610100900416907f8be0079c531659141344cd1fd0a4f28419497f9722a3daafe3b4186f6b6457e090600090a3600580546001600160a01b0390921661010002610100600160a81b0319909216919091179055565b6008546001600160a01b031633146119ac576040805162461bcd60e51b815260206004820152601c602482015260008051602061248d833981519152604482015290519081900360640190fd5b600b805460ff60a01b1916600160a01b179055565b600082820183811015611a1b576040805162461bcd60e51b815260206004820152601b60248201527f536166654d6174683a206164646974696f6e206f766572666c6f770000000000604482015290519081900360640190fd5b9392505050565b6001600160a01b038216611a7d576040805162461bcd60e51b815260206004820152601f60248201527f45524332303a206d696e7420746f20746865207a65726f206164647265737300604482015290519081900360640190fd5b611a89600083836121a3565b600254611a9690826119c1565b6002556001600160a01b038216600090815260208190526040902054611abc90826119c1565b6001600160a01b0383166000818152602081815260408083209490945583518581529351929391927fddf252ad1be2c89b69c2b068fc378daa952ba7f163c4a11628f55a4df523b3ef9281900390910190a35050565b3390565b6001600160a01b038316611b5b5760405162461bcd60e51b81526004018080602001828103825260248152602001806126c76024913960400191505060405180910390fd5b6001600160a01b038216611ba05760405162461bcd60e51b815260040180806020018281038252602281526020018061246b6022913960400191505060405180910390fd5b6001600160a01b03808416600081815260016020908152604080832094871680845294825291829020859055815185815291517f8c5be1e5ebec7d5bd14f71427d1e84f3dd0314c0f7b2291e5b200ac8c7c3b9259281900390910190a3505050565b60075460408051633ddac95360e01b8152306004820152670de0b6b3a7640000602482015290516000926001600160a01b031691633ddac953916044808301926020929190829003018186803b158015611c5b57600080fd5b505afa925050508015611c8057506040513d6020811015611c7b57600080fd5b505160015b611cbb5760405162461bcd60e51b815260040180806020018281038252602e815260200180612710602e913960400191505060405180910390fd5b71ffffffffffffffffffffffffffffffffffff1690506108be565b600b54600090600160a01b900460ff1615610c56576000611d036001611cfa61154a565b60ff16906121a8565b90505b600c8160ff1681548110611d1657fe5b90600052602060002001548310611ddb57612710600d8260ff1681548110611d3a57fe5b906000526020600020015410611d97576040805162461bcd60e51b815260206004820152601b60248201527f74617820657175616c206f722062696767657220746f20313030250000000000604482015290519081900360640190fd5b600d8160ff1681548110611da757fe5b9060005260206000200154600981905550600d8160ff1681548110611dc857fe5b9060005260206000200154915050610c56565b60001901611d06565b6001600160a01b038316611e295760405162461bcd60e51b81526004018080602001828103825260258152602001806126766025913960400191505060405180910390fd5b6001600160a01b038216611e6e5760405162461bcd60e51b81526004018080602001828103825260238152602001806124006023913960400191505060405180910390fd5b611e798383836121a3565b611eb6816040518060600160405280602681526020016124ad602691396001600160a01b0386166000908152602081905260409020549190611fb8565b6001600160a01b038085166000908152602081905260408082209390935590841681522054611ee590826119c1565b6001600160a01b038084166000818152602081815260409182902094909455805185815290519193928716927fddf252ad1be2c89b69c2b068fc378daa952ba7f163c4a11628f55a4df523b3ef92918290030190a3505050565b600080611f63612710611f5d600954876121ea90919063ffffffff16565b90612243565b90506000611f7185836120fd565b90508315611f8857611f83878361215a565b611fa0565b600b54611fa09088906001600160a01b031684611de4565b611fab878783611de4565b5060019695505050505050565b600081848411156120475760405162461bcd60e51b81526004018080602001828103825283818151815260200191508051906020019080838360005b8381101561200c578181015183820152602001611ff4565b50505050905090810190601f1680156120395780820380516001836020036101000a031916815260200191505b509250505060405180910390fd5b505050900390565b6001600160a01b0381166120945760405162461bcd60e51b815260040180806020018281038252602d8152602001806124f9602d913960400191505060405180910390fd5b6040516001600160a01b038216906000907f74da04524d50c64947f5dd5381ef1a4dca5cba8ed1d816243f9e48aa0b5617ed908290a3600680546001600160a01b0319166001600160a01b0392909216919091179055565b6109de6120f7611b12565b826122aa565b600082821115612154576040805162461bcd60e51b815260206004820152601e60248201527f536166654d6174683a207375627472616374696f6e206f766572666c6f770000604482015290519081900360640190fd5b50900390565b60006121858260405180606001604052806024815260200161259d60249139610ac886610ac3611b12565b905061219983612193611b12565b83611b16565b6121a383836122aa565b505050565b6000611a1b83836040518060400160405280601e81526020017f536166654d6174683a207375627472616374696f6e206f766572666c6f7700008152506123a6565b6000826121f9575060006109f9565b8282028284828161220657fe5b0414611a1b5760405162461bcd60e51b81526004018080602001828103825260218152602001806125266021913960400191505060405180910390fd5b6000808211612299576040805162461bcd60e51b815260206004820152601a60248201527f536166654d6174683a206469766973696f6e206279207a65726f000000000000604482015290519081900360640190fd5b8183816122a257fe5b049392505050565b6001600160a01b0382166122ef5760405162461bcd60e51b815260040180806020018281038252602181526020018061260f6021913960400191505060405180910390fd5b6122fb826000836121a3565b61233881604051806060016040528060228152602001612423602291396001600160a01b0385166000908152602081905260409020549190611fb8565b6001600160a01b03831660009081526020819052604090205560025461235e90826120fd565b6002556040805182815290516000916001600160a01b038516917fddf252ad1be2c89b69c2b068fc378daa952ba7f163c4a11628f55a4df523b3ef9181900360200190a35050565b60008360ff168360ff16111582906120475760405162461bcd60e51b815260206004820181815283516024840152835190928392604490910191908501908083836000831561200c578181015183820152602001611ff456fe45524332303a207472616e7366657220746f20746865207a65726f206164647265737345524332303a206275726e20616d6f756e7420657863656564732062616c616e63654f776e61626c653a206e6577206f776e657220697320746865207a65726f206164647265737345524332303a20617070726f766520746f20746865207a65726f206164647265737343616c6c6572206973206e6f742074686520746178206f66666963650000000045524332303a207472616e7366657220616d6f756e7420657863656564732062616c616e6365746178206f666669636520616464726573732063616e6e6f74206265203020616464726573736f70657261746f723a207a65726f206164647265737320676976656e20666f72206e6577206f70657261746f72536166654d6174683a206d756c7469706c69636174696f6e206f766572666c6f7745524332303a207472616e7366657220616d6f756e74206578636565647320616c6c6f77616e636574617820636f6c6c6563746f722061646472657373206d757374206265206e6f6e2d7a65726f206164647265737345524332303a206275726e20616d6f756e74206578636565647320616c6c6f77616e63656f70657261746f723a2063616c6c6572206973206e6f7420746865206f70657261746f72496e6465782068617320746f206c6f776572207468616e20636f756e74206f662074617820746965727345524332303a206275726e2066726f6d20746865207a65726f20616464726573736f7261636c6520616464726573732063616e6e6f74206265203020616464726573736175746f2063616c63756c617465207461782063616e6e6f7420626520656e61626c656445524332303a207472616e736665722066726f6d20746865207a65726f206164647265737343616c6c6572206973206e6f7420746865206f70657261746f72206f722074686520746178206f666669636545524332303a20617070726f76652066726f6d20746865207a65726f206164647265737345524332303a2064656372656173656420616c6c6f77616e63652062656c6f77207a65726f4b697474793a206661696c656420746f206665746368204b495454592070726963652066726f6d204f7261636c65a2646970667358221220b6c5f5036ff959402275e64b29d8c84b42c3c6f62b3d3d344ea11de9dc77a7fa64736f6c634300060c003374617820636f6c6c6563746f722061646472657373206d757374206265206e6f6e2d7a65726f206164647265737343616c6c6572206973206e6f7420746865206f70657261746f72206f722074686520746178206f6666696365",
  "devdoc": {
    "kind": "dev",
    "methods": {
      "allowance(address,address)": {
        "details": "See {IERC20-allowance}."
      },
      "approve(address,uint256)": {
        "details": "See {IERC20-approve}. Requirements: - `spender` cannot be the zero address."
      },
      "balanceOf(address)": {
        "details": "See {IERC20-balanceOf}."
      },
      "burn(uint256)": {
        "details": "Destroys `amount` tokens from the caller. See {ERC20-_burn}."
      },
      "burnFrom(address,uint256)": {
        "details": "Destroys `amount` tokens from `account`, deducting from the caller's allowance. See {ERC20-_burn} and {ERC20-allowance}. Requirements: - the caller must have allowance for ``accounts``'s tokens of at least `amount`."
      },
      "decimals()": {
        "details": "Returns the number of decimals used to get its user representation. For example, if `decimals` equals `2`, a balance of `505` tokens should be displayed to a user as `5,05` (`505 / 10 ** 2`). Tokens usually opt for a value of 18, imitating the relationship between Ether and Wei. This is the value {ERC20} uses, unless {_setupDecimals} is called. NOTE: This information is only used for _display_ purposes: it in no way affects any of the arithmetic of the contract, including {IERC20-balanceOf} and {IERC20-transfer}."
      },
      "decreaseAllowance(address,uint256)": {
        "details": "Atomically decreases the allowance granted to `spender` by the caller. This is an alternative to {approve} that can be used as a mitigation for problems described in {IERC20-approve}. Emits an {Approval} event indicating the updated allowance. Requirements: - `spender` cannot be the zero address. - `spender` must have allowance for the caller of at least `subtractedValue`."
      },
      "increaseAllowance(address,uint256)": {
        "details": "Atomically increases the allowance granted to `spender` by the caller. This is an alternative to {approve} that can be used as a mitigation for problems described in {IERC20-approve}. Emits an {Approval} event indicating the updated allowance. Requirements: - `spender` cannot be the zero address."
      },
      "mint(address,uint256)": {
        "params": {
          "amount_": "The amount of KITTY to mint to",
          "recipient_": "The address of recipient"
        },
        "returns": {
          "_0": "whether the process has been done"
        }
      },
      "name()": {
        "details": "Returns the name of the token."
      },
      "owner()": {
        "details": "Returns the address of the current owner."
      },
      "renounceOwnership()": {
        "details": "Leaves the contract without owner. It will not be possible to call `onlyOwner` functions anymore. Can only be called by the current owner. NOTE: Renouncing ownership will leave the contract without an owner, thereby removing any functionality that is only available to the owner."
      },
      "symbol()": {
        "details": "Returns the symbol of the token, usually a shorter version of the name."
      },
      "totalSupply()": {
        "details": "See {IERC20-totalSupply}."
      },
      "transfer(address,uint256)": {
        "details": "See {IERC20-transfer}. Requirements: - `recipient` cannot be the zero address. - the caller must have a balance of at least `amount`."
      },
      "transferFrom(address,address,uint256)": {
        "details": "See {IERC20-transferFrom}. Emits an {Approval} event indicating the updated allowance. This is not required by the EIP. See the note at the beginning of {ERC20}. Requirements: - `sender` and `recipient` cannot be the zero address. - `sender` must have a balance of at least `amount`. - the caller must have allowance for ``sender``'s tokens of at least `amount`."
      },
      "transferOwnership(address)": {
        "details": "Transfers ownership of the contract to a new account (`newOwner`). Can only be called by the current owner."
      }
    },
    "version": 1
  },
  "userdoc": {
    "kind": "user",
    "methods": {
      "constructor": "Constructs the KITTY ERC-20 contract.",
      "distributeReward(address)": {
        "notice": "distribute to reward pool (only once)"
      },
      "mint(address,uint256)": {
        "notice": "Operator mints KITTY to a recipient"
      }
    },
    "version": 1
  },
  "storageLayout": {
    "storage": [
      {
        "astId": 557,
        "contract": "contracts/Kitty.sol:Kitty",
        "label": "_balances",
        "offset": 0,
        "slot": "0",
        "type": "t_mapping(t_address,t_uint256)"
      },
      {
        "astId": 563,
        "contract": "contracts/Kitty.sol:Kitty",
        "label": "_allowances",
        "offset": 0,
        "slot": "1",
        "type": "t_mapping(t_address,t_mapping(t_address,t_uint256))"
      },
      {
        "astId": 565,
        "contract": "contracts/Kitty.sol:Kitty",
        "label": "_totalSupply",
        "offset": 0,
        "slot": "2",
        "type": "t_uint256"
      },
      {
        "astId": 567,
        "contract": "contracts/Kitty.sol:Kitty",
        "label": "_name",
        "offset": 0,
        "slot": "3",
        "type": "t_string_storage"
      },
      {
        "astId": 569,
        "contract": "contracts/Kitty.sol:Kitty",
        "label": "_symbol",
        "offset": 0,
        "slot": "4",
        "type": "t_string_storage"
      },
      {
        "astId": 571,
        "contract": "contracts/Kitty.sol:Kitty",
        "label": "_decimals",
        "offset": 0,
        "slot": "5",
        "type": "t_uint8"
      },
      {
        "astId": 10,
        "contract": "contracts/Kitty.sol:Kitty",
        "label": "_owner",
        "offset": 1,
        "slot": "5",
        "type": "t_address"
      },
      {
        "astId": 13437,
        "contract": "contracts/Kitty.sol:Kitty",
        "label": "_operator",
        "offset": 0,
        "slot": "6",
        "type": "t_address"
      },
      {
        "astId": 2437,
        "contract": "contracts/Kitty.sol:Kitty",
        "label": "rewardPoolDistributed",
        "offset": 20,
        "slot": "6",
        "type": "t_bool"
      },
      {
        "astId": 2439,
        "contract": "contracts/Kitty.sol:Kitty",
        "label": "kittyOracle",
        "offset": 0,
        "slot": "7",
        "type": "t_address"
      },
      {
        "astId": 2441,
        "contract": "contracts/Kitty.sol:Kitty",
        "label": "taxOffice",
        "offset": 0,
        "slot": "8",
        "type": "t_address"
      },
      {
        "astId": 2443,
        "contract": "contracts/Kitty.sol:Kitty",
        "label": "taxRate",
        "offset": 0,
        "slot": "9",
        "type": "t_uint256"
      },
      {
        "astId": 2446,
        "contract": "contracts/Kitty.sol:Kitty",
        "label": "burnThreshold",
        "offset": 0,
        "slot": "10",
        "type": "t_uint256"
      },
      {
        "astId": 2448,
        "contract": "contracts/Kitty.sol:Kitty",
        "label": "taxCollectorAddress",
        "offset": 0,
        "slot": "11",
        "type": "t_address"
      },
      {
        "astId": 2450,
        "contract": "contracts/Kitty.sol:Kitty",
        "label": "autoCalculateTax",
        "offset": 20,
        "slot": "11",
        "type": "t_bool"
      },
      {
        "astId": 2468,
        "contract": "contracts/Kitty.sol:Kitty",
        "label": "taxTiersTwaps",
        "offset": 0,
        "slot": "12",
        "type": "t_array(t_uint256)dyn_storage"
      },
      {
        "astId": 2486,
        "contract": "contracts/Kitty.sol:Kitty",
        "label": "taxTiersRates",
        "offset": 0,
        "slot": "13",
        "type": "t_array(t_uint256)dyn_storage"
      },
      {
        "astId": 2490,
        "contract": "contracts/Kitty.sol:Kitty",
        "label": "excludedAddresses",
        "offset": 0,
        "slot": "14",
        "type": "t_mapping(t_address,t_bool)"
      }
    ],
    "types": {
      "t_address": {
        "encoding": "inplace",
        "label": "address",
        "numberOfBytes": "20"
      },
      "t_array(t_uint256)dyn_storage": {
        "base": "t_uint256",
        "encoding": "dynamic_array",
        "label": "uint256[]",
        "numberOfBytes": "32"
      },
      "t_bool": {
        "encoding": "inplace",
        "label": "bool",
        "numberOfBytes": "1"
      },
      "t_mapping(t_address,t_bool)": {
        "encoding": "mapping",
        "key": "t_address",
        "label": "mapping(address => bool)",
        "numberOfBytes": "32",
        "value": "t_bool"
      },
      "t_mapping(t_address,t_mapping(t_address,t_uint256))": {
        "encoding": "mapping",
        "key": "t_address",
        "label": "mapping(address => mapping(address => uint256))",
        "numberOfBytes": "32",
        "value": "t_mapping(t_address,t_uint256)"
      },
      "t_mapping(t_address,t_uint256)": {
        "encoding": "mapping",
        "key": "t_address",
        "label": "mapping(address => uint256)",
        "numberOfBytes": "32",
        "value": "t_uint256"
      },
      "t_string_storage": {
        "encoding": "bytes",
        "label": "string",
        "numberOfBytes": "32"
      },
      "t_uint256": {
        "encoding": "inplace",
        "label": "uint256",
        "numberOfBytes": "32"
      },
      "t_uint8": {
        "encoding": "inplace",
        "label": "uint8",
        "numberOfBytes": "1"
      }
    }
  }
}