{
  "address": "0xDB75c7b1f8D54Fd02C456609F985F5229634429A",
  "abi": [
    {
      "anonymous": false,
      "inputs": [
        {
          "indexed": true,
          "internalType": "address",
          "name": "executor",
          "type": "address"
        },
        {
          "indexed": false,
          "internalType": "uint256",
          "name": "at",
          "type": "uint256"
        }
      ],
      "name": "Initialized",
      "type": "event"
    },
    {
      "anonymous": false,
      "inputs": [
        {
          "indexed": true,
          "internalType": "address",
          "name": "user",
          "type": "address"
        },
        {
          "indexed": false,
          "internalType": "uint256",
          "name": "reward",
          "type": "uint256"
        }
      ],
      "name": "RewardAdded",
      "type": "event"
    },
    {
      "anonymous": false,
      "inputs": [
        {
          "indexed": true,
          "internalType": "address",
          "name": "user",
          "type": "address"
        },
        {
          "indexed": false,
          "internalType": "uint256",
          "name": "reward",
          "type": "uint256"
        }
      ],
      "name": "RewardPaid",
      "type": "event"
    },
    {
      "anonymous": false,
      "inputs": [
        {
          "indexed": true,
          "internalType": "address",
          "name": "user",
          "type": "address"
        },
        {
          "indexed": false,
          "internalType": "uint256",
          "name": "amount",
          "type": "uint256"
        }
      ],
      "name": "Staked",
      "type": "event"
    },
    {
      "anonymous": false,
      "inputs": [
        {
          "indexed": true,
          "internalType": "address",
          "name": "user",
          "type": "address"
        },
        {
          "indexed": false,
          "internalType": "uint256",
          "name": "amount",
          "type": "uint256"
        }
      ],
      "name": "Withdrawn",
      "type": "event"
    },
    {
      "inputs": [
        {
          "internalType": "uint256",
          "name": "amount",
          "type": "uint256"
        }
      ],
      "name": "allocateSeigniorage",
      "outputs": [],
      "stateMutability": "nonpayable",
      "type": "function"
    },
    {
      "inputs": [
        {
          "internalType": "address",
          "name": "account",
          "type": "address"
        }
      ],
      "name": "balanceOf",
      "outputs": [
        {
          "internalType": "uint256",
          "name": "",
          "type": "uint256"
        }
      ],
      "stateMutability": "view",
      "type": "function"
    },
    {
      "inputs": [
        {
          "internalType": "address",
          "name": "member",
          "type": "address"
        }
      ],
      "name": "canClaimReward",
      "outputs": [
        {
          "internalType": "bool",
          "name": "",
          "type": "bool"
        }
      ],
      "stateMutability": "view",
      "type": "function"
    },
    {
      "inputs": [
        {
          "internalType": "address",
          "name": "member",
          "type": "address"
        }
      ],
      "name": "canWithdraw",
      "outputs": [
        {
          "internalType": "bool",
          "name": "",
          "type": "bool"
        }
      ],
      "stateMutability": "view",
      "type": "function"
    },
    {
      "inputs": [],
      "name": "claimReward",
      "outputs": [],
      "stateMutability": "nonpayable",
      "type": "function"
    },
    {
      "inputs": [
        {
          "internalType": "address",
          "name": "member",
          "type": "address"
        }
      ],
      "name": "earned",
      "outputs": [
        {
          "internalType": "uint256",
          "name": "",
          "type": "uint256"
        }
      ],
      "stateMutability": "view",
      "type": "function"
    },
    {
      "inputs": [],
      "name": "epoch",
      "outputs": [
        {
          "internalType": "uint256",
          "name": "",
          "type": "uint256"
        }
      ],
      "stateMutability": "view",
      "type": "function"
    },
    {
      "inputs": [],
      "name": "exit",
      "outputs": [],
      "stateMutability": "nonpayable",
      "type": "function"
    },
    {
      "inputs": [],
      "name": "getKittyPrice",
      "outputs": [
        {
          "internalType": "uint256",
          "name": "",
          "type": "uint256"
        }
      ],
      "stateMutability": "view",
      "type": "function"
    },
    {
      "inputs": [
        {
          "internalType": "address",
          "name": "member",
          "type": "address"
        }
      ],
      "name": "getLastSnapshotIndexOf",
      "outputs": [
        {
          "internalType": "uint256",
          "name": "",
          "type": "uint256"
        }
      ],
      "stateMutability": "view",
      "type": "function"
    },
    {
      "inputs": [
        {
          "internalType": "contract IERC20",
          "name": "_token",
          "type": "address"
        },
        {
          "internalType": "uint256",
          "name": "_amount",
          "type": "uint256"
        },
        {
          "internalType": "address",
          "name": "_to",
          "type": "address"
        }
      ],
      "name": "governanceRecoverUnsupported",
      "outputs": [],
      "stateMutability": "nonpayable",
      "type": "function"
    },
    {
      "inputs": [
        {
          "internalType": "contract IERC20",
          "name": "_kitty",
          "type": "address"
        },
        {
          "internalType": "contract IERC20",
          "name": "_share",
          "type": "address"
        },
        {
          "internalType": "contract ITreasury",
          "name": "_treasury",
          "type": "address"
        }
      ],
      "name": "initialize",
      "outputs": [],
      "stateMutability": "nonpayable",
      "type": "function"
    },
    {
      "inputs": [],
      "name": "initialized",
      "outputs": [
        {
          "internalType": "bool",
          "name": "",
          "type": "bool"
        }
      ],
      "stateMutability": "view",
      "type": "function"
    },
    {
      "inputs": [],
      "name": "kitty",
      "outputs": [
        {
          "internalType": "contract IERC20",
          "name": "",
          "type": "address"
        }
      ],
      "stateMutability": "view",
      "type": "function"
    },
    {
      "inputs": [],
      "name": "latestSnapshotIndex",
      "outputs": [
        {
          "internalType": "uint256",
          "name": "",
          "type": "uint256"
        }
      ],
      "stateMutability": "view",
      "type": "function"
    },
    {
      "inputs": [
        {
          "internalType": "address",
          "name": "",
          "type": "address"
        }
      ],
      "name": "members",
      "outputs": [
        {
          "internalType": "uint256",
          "name": "lastSnapshotIndex",
          "type": "uint256"
        },
        {
          "internalType": "uint256",
          "name": "rewardEarned",
          "type": "uint256"
        },
        {
          "internalType": "uint256",
          "name": "epochTimerStart",
          "type": "uint256"
        }
      ],
      "stateMutability": "view",
      "type": "function"
    },
    {
      "inputs": [],
      "name": "nextEpochPoint",
      "outputs": [
        {
          "internalType": "uint256",
          "name": "",
          "type": "uint256"
        }
      ],
      "stateMutability": "view",
      "type": "function"
    },
    {
      "inputs": [
        {
          "internalType": "uint256",
          "name": "",
          "type": "uint256"
        }
      ],
      "name": "nurseryHistory",
      "outputs": [
        {
          "internalType": "uint256",
          "name": "time",
          "type": "uint256"
        },
        {
          "internalType": "uint256",
          "name": "rewardReceived",
          "type": "uint256"
        },
        {
          "internalType": "uint256",
          "name": "rewardPerShare",
          "type": "uint256"
        }
      ],
      "stateMutability": "view",
      "type": "function"
    },
    {
      "inputs": [],
      "name": "operator",
      "outputs": [
        {
          "internalType": "address",
          "name": "",
          "type": "address"
        }
      ],
      "stateMutability": "view",
      "type": "function"
    },
    {
      "inputs": [],
      "name": "rewardLockupEpochs",
      "outputs": [
        {
          "internalType": "uint256",
          "name": "",
          "type": "uint256"
        }
      ],
      "stateMutability": "view",
      "type": "function"
    },
    {
      "inputs": [],
      "name": "rewardPerShare",
      "outputs": [
        {
          "internalType": "uint256",
          "name": "",
          "type": "uint256"
        }
      ],
      "stateMutability": "view",
      "type": "function"
    },
    {
      "inputs": [
        {
          "internalType": "uint256",
          "name": "_withdrawLockupEpochs",
          "type": "uint256"
        },
        {
          "internalType": "uint256",
          "name": "_rewardLockupEpochs",
          "type": "uint256"
        }
      ],
      "name": "setLockUp",
      "outputs": [],
      "stateMutability": "nonpayable",
      "type": "function"
    },
    {
      "inputs": [
        {
          "internalType": "address",
          "name": "_operator",
          "type": "address"
        }
      ],
      "name": "setOperator",
      "outputs": [],
      "stateMutability": "nonpayable",
      "type": "function"
    },
    {
      "inputs": [],
      "name": "share",
      "outputs": [
        {
          "internalType": "contract IERC20",
          "name": "",
          "type": "address"
        }
      ],
      "stateMutability": "view",
      "type": "function"
    },
    {
      "inputs": [
        {
          "internalType": "uint256",
          "name": "amount",
          "type": "uint256"
        }
      ],
      "name": "stake",
      "outputs": [],
      "stateMutability": "nonpayable",
      "type": "function"
    },
    {
      "inputs": [],
      "name": "totalSupply",
      "outputs": [
        {
          "internalType": "uint256",
          "name": "",
          "type": "uint256"
        }
      ],
      "stateMutability": "view",
      "type": "function"
    },
    {
      "inputs": [],
      "name": "treasury",
      "outputs": [
        {
          "internalType": "contract ITreasury",
          "name": "",
          "type": "address"
        }
      ],
      "stateMutability": "view",
      "type": "function"
    },
    {
      "inputs": [
        {
          "internalType": "uint256",
          "name": "amount",
          "type": "uint256"
        }
      ],
      "name": "withdraw",
      "outputs": [],
      "stateMutability": "nonpayable",
      "type": "function"
    },
    {
      "inputs": [],
      "name": "withdrawLockupEpochs",
      "outputs": [
        {
          "internalType": "uint256",
          "name": "",
          "type": "uint256"
        }
      ],
      "stateMutability": "view",
      "type": "function"
    }
  ],
  "transactionHash": "0xc4174a4f7f9cfc969956a083bef17a637f7909f7676b94ff7471a42d69c10a22",
  "args": [],
  "solcInputHash": "d63e44ed8deab339d0eca9c31360ed01",
  "bytecode": "0x60806040526004805460ff60a01b1916905534801561001d57600080fd5b50611fa28061002d6000396000f3fe608060405234801561001057600080fd5b50600436106101ce5760003560e01c8063500561831161010457806397ffe1d7116100a2578063b88a802f11610071578063b88a802f1461046c578063c0c53b8b14610474578063c5967c26146104ac578063e9fad8ee146104b4576101ce565b806397ffe1d714610404578063a694fc3a14610421578063a8d5fd651461043e578063b3ab15fb14610446576101ce565b806361d027b3116100de57806361d027b3146103a857806370a08231146103b0578063714b4658146103d6578063900cf0cf146103fc576101ce565b8063500561831461034d57806354575af41461036a578063570ca735146103a0576101ce565b806319262d30116101715780632ffaaa091161014b5780632ffaaa09146103125780633f9e3f041461033557806341f329dd1461033d578063446a2ec814610345576101ce565b806319262d30146102c55780631e85cd65146102eb5780632e1a7d4d146102f3576101ce565b806308ae4b0c116101ad57806308ae4b0c1461024d5780630baccd7514610291578063158ef93e146102b557806318160ddd146102bd576101ce565b80628cc262146101d3578063022ba18d1461020b578063046335d014610213575b600080fd5b6101f9600480360360208110156101e957600080fd5b50356001600160a01b03166104bc565b60408051918252519081900360200190f35b6101f961053d565b6102396004803603602081101561022957600080fd5b50356001600160a01b0316610543565b604080519115158252519081900360200190f35b6102736004803603602081101561026357600080fd5b50356001600160a01b03166105e4565b60408051938452602084019290925282820152519081900360600190f35b610299610605565b604080516001600160a01b039092168252519081900360200190f35b610239610614565b6101f9610624565b610239600480360360208110156102db57600080fd5b50356001600160a01b031661062a565b6101f96106c3565b6103106004803603602081101561030957600080fd5b50356106c9565b005b6103106004803603604081101561032857600080fd5b50803590602001356109e3565b6101f9610a83565b6101f9610a99565b6101f9610b0f565b6102736004803603602081101561036357600080fd5b5035610b22565b6103106004803603606081101561038057600080fd5b506001600160a01b03813581169160208101359160409091013516610b52565b610299610c48565b610299610c57565b6101f9600480360360208110156103c657600080fd5b50356001600160a01b0316610c66565b6101f9600480360360208110156103ec57600080fd5b50356001600160a01b0316610c81565b6101f9610c9c565b6103106004803603602081101561041a57600080fd5b5035610ce1565b6103106004803603602081101561043757600080fd5b5035610fc5565b61029961124a565b6103106004803603602081101561045c57600080fd5b50356001600160a01b0316611259565b6103106112c4565b6103106004803603606081101561048a57600080fd5b506001600160a01b038135811691602081013582169160409091013516611551565b6101f9611703565b610310611748565b6000806104c761175b565b60400151905060006104d8846117b3565b6040908101516001600160a01b0386166000908152600760205291909120600101549091506105359061052f670de0b6b3a764000061052961051a878761180e565b6105238a610c66565b90611870565b906118d0565b90611937565b949350505050565b600a5481565b6006546040805163900cf0cf60e01b815290516000926001600160a01b03169163900cf0cf916004808301926020929190829003018186803b15801561058857600080fd5b505afa15801561059c573d6000803e3d6000fd5b505050506040513d60208110156105b257600080fd5b5051600a546001600160a01b0384166000908152600760205260409020600201546105dc91611937565b111592915050565b60076020526000908152604090208054600182015460029092015490919083565b6005546001600160a01b031681565b600454600160a01b900460ff1681565b60015490565b6006546040805163900cf0cf60e01b815290516000926001600160a01b03169163900cf0cf916004808301926020929190829003018186803b15801561066f57600080fd5b505afa158015610683573d6000803e3d6000fd5b505050506040513d602081101561069957600080fd5b50516009546001600160a01b0384166000908152600760205260409020600201546105dc91611937565b60095481565b6106d1611991565b1561070d5760405162461bcd60e51b8152600401808060200182810382526026815260200180611f046026913960400191505060405180910390fd5b6107156119b2565b156107515760405162461bcd60e51b8152600401808060200182810382526026815260200180611f046026913960400191505060405180910390fd5b600061075c33610c66565b116107985760405162461bcd60e51b8152600401808060200182810382526022815260200180611f4b6022913960400191505060405180910390fd5b338015610832576107a7611def565b506001600160a01b03811660009081526007602090815260409182902082516060810184528154815260018201549281019290925260020154918101919091526107f0826104bc565b60208201526107fd610a83565b81526001600160a01b038216600090815260076020908152604091829020835181559083015160018201559101516002909101555b60008211610887576040805162461bcd60e51b815260206004820152601a60248201527f4e7572736572793a2043616e6e6f742077697468647261772030000000000000604482015290519081900360640190fd5b600660009054906101000a90046001600160a01b03166001600160a01b031663900cf0cf6040518163ffffffff1660e01b815260040160206040518083038186803b1580156108d557600080fd5b505afa1580156108e9573d6000803e3d6000fd5b505050506040513d60208110156108ff57600080fd5b50516009543360009081526007602052604090206002015461092091611937565b111561095d5760405162461bcd60e51b8152600401808060200182810382526021815260200180611f2a6021913960400191505060405180910390fd5b6109656112c4565b61096e826119d3565b60408051838152905133917f7084f5476618d8e60b11ef0d7d3f06914655adb8793e28ff7f018d4c76d505d5919081900360200190a250504360009081526003602090815260408083203284529091528082208054600160ff1991821681179092553384529190922080549091169091179055565b6004546001600160a01b03163314610a2c5760405162461bcd60e51b8152600401808060200182810382526023815260200180611e116023913960400191505060405180910390fd5b808210158015610a3d575060388211155b610a785760405162461bcd60e51b8152600401808060200182810382526023815260200180611e896023913960400191505060405180910390fd5b600991909155600a55565b600854600090610a9490600161180e565b905090565b600654604080516341f329dd60e01b815290516000926001600160a01b0316916341f329dd916004808301926020929190829003018186803b158015610ade57600080fd5b505afa158015610af2573d6000803e3d6000fd5b505050506040513d6020811015610b0857600080fd5b5051905090565b6000610b1961175b565b60400151905090565b60088181548110610b2f57fe5b600091825260209091206003909102018054600182015460029092015490925083565b6004546001600160a01b03163314610b9b5760405162461bcd60e51b8152600401808060200182810382526023815260200180611e116023913960400191505060405180910390fd5b6005546001600160a01b0384811691161415610be6576040805162461bcd60e51b81526020600482015260056024820152646b6974747960d81b604482015290519081900360640190fd5b6000546001600160a01b0384811691161415610c2f576040805162461bcd60e51b815260206004820152600360248201526218d85d60ea1b604482015290519081900360640190fd5b610c436001600160a01b0384168284611a63565b505050565b6004546001600160a01b031681565b6006546001600160a01b031681565b6001600160a01b031660009081526002602052604090205490565b6001600160a01b031660009081526007602052604090205490565b6006546040805163900cf0cf60e01b815290516000926001600160a01b03169163900cf0cf916004808301926020929190829003018186803b158015610ade57600080fd5b610ce9611991565b15610d255760405162461bcd60e51b8152600401808060200182810382526026815260200180611f046026913960400191505060405180910390fd5b610d2d6119b2565b15610d695760405162461bcd60e51b8152600401808060200182810382526026815260200180611f046026913960400191505060405180910390fd5b6004546001600160a01b03163314610db25760405162461bcd60e51b8152600401808060200182810382526023815260200180611e116023913960400191505060405180910390fd5b60008111610e07576040805162461bcd60e51b815260206004820152601a60248201527f4e7572736572793a2043616e6e6f7420616c6c6f636174652030000000000000604482015290519081900360640190fd5b6000610e11610624565b11610e4d5760405162461bcd60e51b815260040180806020018281038252602e815260200180611eac602e913960400191505060405180910390fd5b6000610e5761175b565b6040015190506000610e86610e7f610e6d610624565b61052986670de0b6b3a7640000611870565b8390611937565b9050610e90611def565b5060408051606081018252438152602081018581529181018381526008805460018101825560009190915282517ff3f7a9fe364faab93b216da50a3214154f22a0a2b415b23a84c8169e8b636ee360039092029182015592517ff3f7a9fe364faab93b216da50a3214154f22a0a2b415b23a84c8169e8b636ee4840155517ff3f7a9fe364faab93b216da50a3214154f22a0a2b415b23a84c8169e8b636ee590920191909155600554610f4e906001600160a01b0316333087611ab5565b60408051858152905133917fac24935fd910bc682b5ccb1a07b718cadf8cf2f6d1404c4f3ddc3662dae40e29919081900360200190a250504360009081526003602090815260408083203284529091528082208054600160ff19918216811790925533845291909220805490911690911790555050565b610fcd611991565b156110095760405162461bcd60e51b8152600401808060200182810382526026815260200180611f046026913960400191505060405180910390fd5b6110116119b2565b1561104d5760405162461bcd60e51b8152600401808060200182810382526026815260200180611f046026913960400191505060405180910390fd5b3380156110e75761105c611def565b506001600160a01b03811660009081526007602090815260409182902082516060810184528154815260018201549281019290925260020154918101919091526110a5826104bc565b60208201526110b2610a83565b81526001600160a01b038216600090815260076020908152604091829020835181559083015160018201559101516002909101555b6000821161113c576040805162461bcd60e51b815260206004820152601760248201527f4e7572736572793a2043616e6e6f74207374616b652030000000000000000000604482015290519081900360640190fd5b61114582611b15565b600660009054906101000a90046001600160a01b03166001600160a01b031663900cf0cf6040518163ffffffff1660e01b815260040160206040518083038186803b15801561119357600080fd5b505afa1580156111a7573d6000803e3d6000fd5b505050506040513d60208110156111bd57600080fd5b505133600081815260076020908152604091829020600201939093558051858152905191927f9e71bc8eea02a63969f509818f2dafb9254532904319f9dbda79b67bd34a5f3d92918290030190a250504360009081526003602090815260408083203284529091528082208054600160ff1991821681179092553384529190922080549091169091179055565b6000546001600160a01b031681565b6004546001600160a01b031633146112a25760405162461bcd60e51b8152600401808060200182810382526023815260200180611e116023913960400191505060405180910390fd5b600480546001600160a01b0319166001600160a01b0392909216919091179055565b33801561135e576112d3611def565b506001600160a01b038116600090815260076020908152604091829020825160608101845281548152600182015492810192909252600201549181019190915261131c826104bc565b6020820152611329610a83565b81526001600160a01b038216600090815260076020908152604091829020835181559083015160018201559101516002909101555b33600090815260076020526040902060010154801561154d57600660009054906101000a90046001600160a01b03166001600160a01b031663900cf0cf6040518163ffffffff1660e01b815260040160206040518083038186803b1580156113c557600080fd5b505afa1580156113d9573d6000803e3d6000fd5b505050506040513d60208110156113ef57600080fd5b5051600a543360009081526007602052604090206002015461141091611937565b1115611463576040805162461bcd60e51b815260206004820152601f60248201527f4e7572736572793a207374696c6c20696e20726577617264206c6f636b757000604482015290519081900360640190fd5b600660009054906101000a90046001600160a01b03166001600160a01b031663900cf0cf6040518163ffffffff1660e01b815260040160206040518083038186803b1580156114b157600080fd5b505afa1580156114c5573d6000803e3d6000fd5b505050506040513d60208110156114db57600080fd5b50513360008181526007602052604081206002810193909355600190920191909155600554611516916001600160a01b039091169083611a63565b60408051828152905133917fe2403640ba68fed3a2f88b7557551d1993f84b99bb10ff833f0cf8db0c5e0486919081900360200190a25b5050565b600454600160a01b900460ff16156115b0576040805162461bcd60e51b815260206004820152601c60248201527f4e7572736572793a20616c726561647920696e697469616c697a656400000000604482015290519081900360640190fd5b600580546001600160a01b038086166001600160a01b0319928316179092556000805485841690831617905560068054928416929091169190911790556115f5611def565b50604080516060810182524380825260006020808401828152848601838152600880546001810182559452855160039485027ff3f7a9fe364faab93b216da50a3214154f22a0a2b415b23a84c8169e8b636ee381019190915591517ff3f7a9fe364faab93b216da50a3214154f22a0a2b415b23a84c8169e8b636ee4830155517ff3f7a9fe364faab93b216da50a3214154f22a0a2b415b23a84c8169e8b636ee5909101556006600955600a91909155600480546001600160a01b031960ff60a01b19909116600160a01b171633908117909155845192835293519293927f25ff68dd81b34665b5ba7e553ee5511bf6812e12adb4a7e2c0d9e26b3099ce799281900390910190a250505050565b600654604080516362cb3e1360e11b815290516000926001600160a01b03169163c5967c26916004808301926020929190829003018186803b158015610ade57600080fd5b61175961175433610c66565b6106c9565b565b611763611def565b600861176d610a83565b8154811061177757fe5b90600052602060002090600302016040518060600160405290816000820154815260200160018201548152602001600282015481525050905090565b6117bb611def565b60086117c683610c81565b815481106117d057fe5b906000526020600020906003020160405180606001604052908160008201548152602001600182015481526020016002820154815250509050919050565b600082821115611865576040805162461bcd60e51b815260206004820152601e60248201527f536166654d6174683a207375627472616374696f6e206f766572666c6f770000604482015290519081900360640190fd5b508082035b92915050565b60008261187f5750600061186a565b8282028284828161188c57fe5b04146118c95760405162461bcd60e51b8152600401808060200182810382526021815260200180611e346021913960400191505060405180910390fd5b9392505050565b6000808211611926576040805162461bcd60e51b815260206004820152601a60248201527f536166654d6174683a206469766973696f6e206279207a65726f000000000000604482015290519081900360640190fd5b81838161192f57fe5b049392505050565b6000828201838110156118c9576040805162461bcd60e51b815260206004820152601b60248201527f536166654d6174683a206164646974696f6e206f766572666c6f770000000000604482015290519081900360640190fd5b43600090815260036020908152604080832032845290915290205460ff1690565b43600090815260036020908152604080832033845290915290205460ff1690565b3360009081526002602052604090205481811015611a225760405162461bcd60e51b8152600401808060200182810382526034815260200180611e556034913960400191505060405180910390fd5b600154611a2f908361180e565b600155611a3c818361180e565b33600081815260026020526040812092909255905461154d916001600160a01b0390911690845b604080516001600160a01b038416602482015260448082018490528251808303909101815260649091019091526020810180516001600160e01b031663a9059cbb60e01b179052610c43908490611b6e565b604080516001600160a01b0380861660248301528416604482015260648082018490528251808303909101815260849091019091526020810180516001600160e01b03166323b872dd60e01b179052611b0f908590611b6e565b50505050565b600154611b229082611937565b60015533600090815260026020526040902054611b3f9082611937565b336000818152600260205260408120929092559054611b6b916001600160a01b03909116903084611ab5565b50565b6060611bc3826040518060400160405280602081526020017f5361666545524332303a206c6f772d6c6576656c2063616c6c206661696c6564815250856001600160a01b0316611c1f9092919063ffffffff16565b805190915015610c4357808060200190516020811015611be257600080fd5b5051610c435760405162461bcd60e51b815260040180806020018281038252602a815260200180611eda602a913960400191505060405180910390fd5b6060610535848460008585611c3385611d45565b611c84576040805162461bcd60e51b815260206004820152601d60248201527f416464726573733a2063616c6c20746f206e6f6e2d636f6e7472616374000000604482015290519081900360640190fd5b60006060866001600160a01b031685876040518082805190602001908083835b60208310611cc35780518252601f199092019160209182019101611ca4565b6001836020036101000a03801982511681845116808217855250505050505090500191505060006040518083038185875af1925050503d8060008114611d25576040519150601f19603f3d011682016040523d82523d6000602084013e611d2a565b606091505b5091509150611d3a828286611d4b565b979650505050505050565b3b151590565b60608315611d5a5750816118c9565b825115611d6a5782518084602001fd5b8160405162461bcd60e51b81526004018080602001828103825283818151815260200191508051906020019080838360005b83811015611db4578181015183820152602001611d9c565b50505050905090810190601f168015611de15780820380516001836020036101000a031916815260200191505b509250505060405180910390fd5b6040518060600160405280600081526020016000815260200160008152509056fe4e7572736572793a2063616c6c6572206973206e6f7420746865206f70657261746f72536166654d6174683a206d756c7469706c69636174696f6e206f766572666c6f774e7572736572793a20776974686472617720726571756573742067726561746572207468616e207374616b656420616d6f756e745f77697468647261774c6f636b757045706f6368733a206f7574206f662072616e67654e7572736572793a2043616e6e6f7420616c6c6f63617465207768656e20746f74616c537570706c7920697320305361666545524332303a204552433230206f7065726174696f6e20646964206e6f742073756363656564436f6e747261637447756172643a206f6e6520626c6f636b2c206f6e652066756e6374696f6e4e7572736572793a207374696c6c20696e207769746864726177206c6f636b75704e7572736572793a20546865206d656d62657220646f6573206e6f74206578697374a26469706673582212204cfa6274e2a447aa6eea480cc3b1d93ec80603e3160ddb20465bd0c73970093c64736f6c634300060c0033",
  "devdoc": {
    "kind": "dev",
    "methods": {},
    "version": 1
  },
  "userdoc": {
    "kind": "user",
    "methods": {},
    "version": 1
  },
  "storageLayout": {
    "storage": [
      {
        "astId": 3252,
        "contract": "contracts/Nursery.sol:Nursery",
        "label": "share",
        "offset": 0,
        "slot": "0",
        "type": "t_contract(IERC20)1180"
      },
      {
        "astId": 3254,
        "contract": "contracts/Nursery.sol:Nursery",
        "label": "_totalSupply",
        "offset": 0,
        "slot": "1",
        "type": "t_uint256"
      },
      {
        "astId": 3258,
        "contract": "contracts/Nursery.sol:Nursery",
        "label": "_balances",
        "offset": 0,
        "slot": "2",
        "type": "t_mapping(t_address,t_uint256)"
      },
      {
        "astId": 13540,
        "contract": "contracts/Nursery.sol:Nursery",
        "label": "_status",
        "offset": 0,
        "slot": "3",
        "type": "t_mapping(t_uint256,t_mapping(t_address,t_bool))"
      },
      {
        "astId": 3391,
        "contract": "contracts/Nursery.sol:Nursery",
        "label": "operator",
        "offset": 0,
        "slot": "4",
        "type": "t_address"
      },
      {
        "astId": 3394,
        "contract": "contracts/Nursery.sol:Nursery",
        "label": "initialized",
        "offset": 20,
        "slot": "4",
        "type": "t_bool"
      },
      {
        "astId": 3396,
        "contract": "contracts/Nursery.sol:Nursery",
        "label": "kitty",
        "offset": 0,
        "slot": "5",
        "type": "t_contract(IERC20)1180"
      },
      {
        "astId": 3398,
        "contract": "contracts/Nursery.sol:Nursery",
        "label": "treasury",
        "offset": 0,
        "slot": "6",
        "type": "t_contract(ITreasury)11704"
      },
      {
        "astId": 3402,
        "contract": "contracts/Nursery.sol:Nursery",
        "label": "members",
        "offset": 0,
        "slot": "7",
        "type": "t_mapping(t_address,t_struct(Memberseat)3382_storage)"
      },
      {
        "astId": 3405,
        "contract": "contracts/Nursery.sol:Nursery",
        "label": "nurseryHistory",
        "offset": 0,
        "slot": "8",
        "type": "t_array(t_struct(NurserySnapshot)3389_storage)dyn_storage"
      },
      {
        "astId": 3407,
        "contract": "contracts/Nursery.sol:Nursery",
        "label": "withdrawLockupEpochs",
        "offset": 0,
        "slot": "9",
        "type": "t_uint256"
      },
      {
        "astId": 3409,
        "contract": "contracts/Nursery.sol:Nursery",
        "label": "rewardLockupEpochs",
        "offset": 0,
        "slot": "10",
        "type": "t_uint256"
      }
    ],
    "types": {
      "t_address": {
        "encoding": "inplace",
        "label": "address",
        "numberOfBytes": "20"
      },
      "t_array(t_struct(NurserySnapshot)3389_storage)dyn_storage": {
        "base": "t_struct(NurserySnapshot)3389_storage",
        "encoding": "dynamic_array",
        "label": "struct Nursery.NurserySnapshot[]",
        "numberOfBytes": "32"
      },
      "t_bool": {
        "encoding": "inplace",
        "label": "bool",
        "numberOfBytes": "1"
      },
      "t_contract(IERC20)1180": {
        "encoding": "inplace",
        "label": "contract IERC20",
        "numberOfBytes": "20"
      },
      "t_contract(ITreasury)11704": {
        "encoding": "inplace",
        "label": "contract ITreasury",
        "numberOfBytes": "20"
      },
      "t_mapping(t_address,t_bool)": {
        "encoding": "mapping",
        "key": "t_address",
        "label": "mapping(address => bool)",
        "numberOfBytes": "32",
        "value": "t_bool"
      },
      "t_mapping(t_address,t_struct(Memberseat)3382_storage)": {
        "encoding": "mapping",
        "key": "t_address",
        "label": "mapping(address => struct Nursery.Memberseat)",
        "numberOfBytes": "32",
        "value": "t_struct(Memberseat)3382_storage"
      },
      "t_mapping(t_address,t_uint256)": {
        "encoding": "mapping",
        "key": "t_address",
        "label": "mapping(address => uint256)",
        "numberOfBytes": "32",
        "value": "t_uint256"
      },
      "t_mapping(t_uint256,t_mapping(t_address,t_bool))": {
        "encoding": "mapping",
        "key": "t_uint256",
        "label": "mapping(uint256 => mapping(address => bool))",
        "numberOfBytes": "32",
        "value": "t_mapping(t_address,t_bool)"
      },
      "t_struct(Memberseat)3382_storage": {
        "encoding": "inplace",
        "label": "struct Nursery.Memberseat",
        "members": [
          {
            "astId": 3377,
            "contract": "contracts/Nursery.sol:Nursery",
            "label": "lastSnapshotIndex",
            "offset": 0,
            "slot": "0",
            "type": "t_uint256"
          },
          {
            "astId": 3379,
            "contract": "contracts/Nursery.sol:Nursery",
            "label": "rewardEarned",
            "offset": 0,
            "slot": "1",
            "type": "t_uint256"
          },
          {
            "astId": 3381,
            "contract": "contracts/Nursery.sol:Nursery",
            "label": "epochTimerStart",
            "offset": 0,
            "slot": "2",
            "type": "t_uint256"
          }
        ],
        "numberOfBytes": "96"
      },
      "t_struct(NurserySnapshot)3389_storage": {
        "encoding": "inplace",
        "label": "struct Nursery.NurserySnapshot",
        "members": [
          {
            "astId": 3384,
            "contract": "contracts/Nursery.sol:Nursery",
            "label": "time",
            "offset": 0,
            "slot": "0",
            "type": "t_uint256"
          },
          {
            "astId": 3386,
            "contract": "contracts/Nursery.sol:Nursery",
            "label": "rewardReceived",
            "offset": 0,
            "slot": "1",
            "type": "t_uint256"
          },
          {
            "astId": 3388,
            "contract": "contracts/Nursery.sol:Nursery",
            "label": "rewardPerShare",
            "offset": 0,
            "slot": "2",
            "type": "t_uint256"
          }
        ],
        "numberOfBytes": "96"
      },
      "t_uint256": {
        "encoding": "inplace",
        "label": "uint256",
        "numberOfBytes": "32"
      }
    }
  }
}