{
  "address": "0x170c365Ad1D5d32DDB4126E6f36Fb68B247204F0",
  "abi": [
    {
      "anonymous": false,
      "inputs": [
        {
          "indexed": true,
          "internalType": "address",
          "name": "previousOperator",
          "type": "address"
        },
        {
          "indexed": true,
          "internalType": "address",
          "name": "newOperator",
          "type": "address"
        }
      ],
      "name": "OperatorTransferred",
      "type": "event"
    },
    {
      "anonymous": false,
      "inputs": [
        {
          "indexed": true,
          "internalType": "address",
          "name": "previousOwner",
          "type": "address"
        },
        {
          "indexed": true,
          "internalType": "address",
          "name": "newOwner",
          "type": "address"
        }
      ],
      "name": "OwnershipTransferred",
      "type": "event"
    },
    {
      "inputs": [
        {
          "internalType": "uint256",
          "name": "amtKitty",
          "type": "uint256"
        },
        {
          "internalType": "uint256",
          "name": "amtKittyMin",
          "type": "uint256"
        },
        {
          "internalType": "uint256",
          "name": "amtEthMin",
          "type": "uint256"
        }
      ],
      "name": "addLiquidityETHTaxFree",
      "outputs": [
        {
          "internalType": "uint256",
          "name": "",
          "type": "uint256"
        },
        {
          "internalType": "uint256",
          "name": "",
          "type": "uint256"
        },
        {
          "internalType": "uint256",
          "name": "",
          "type": "uint256"
        }
      ],
      "stateMutability": "payable",
      "type": "function"
    },
    {
      "inputs": [
        {
          "internalType": "address",
          "name": "token",
          "type": "address"
        },
        {
          "internalType": "uint256",
          "name": "amtKitty",
          "type": "uint256"
        },
        {
          "internalType": "uint256",
          "name": "amtToken",
          "type": "uint256"
        },
        {
          "internalType": "uint256",
          "name": "amtKittyMin",
          "type": "uint256"
        },
        {
          "internalType": "uint256",
          "name": "amtTokenMin",
          "type": "uint256"
        }
      ],
      "name": "addLiquidityTaxFree",
      "outputs": [
        {
          "internalType": "uint256",
          "name": "",
          "type": "uint256"
        },
        {
          "internalType": "uint256",
          "name": "",
          "type": "uint256"
        },
        {
          "internalType": "uint256",
          "name": "",
          "type": "uint256"
        }
      ],
      "stateMutability": "nonpayable",
      "type": "function"
    },
    {
      "inputs": [],
      "name": "disableAutoCalculateTax",
      "outputs": [],
      "stateMutability": "nonpayable",
      "type": "function"
    },
    {
      "inputs": [],
      "name": "enableAutoCalculateTax",
      "outputs": [],
      "stateMutability": "nonpayable",
      "type": "function"
    },
    {
      "inputs": [
        {
          "internalType": "address",
          "name": "_address",
          "type": "address"
        }
      ],
      "name": "excludeAddressFromTax",
      "outputs": [
        {
          "internalType": "bool",
          "name": "",
          "type": "bool"
        }
      ],
      "stateMutability": "nonpayable",
      "type": "function"
    },
    {
      "inputs": [
        {
          "internalType": "address",
          "name": "_address",
          "type": "address"
        }
      ],
      "name": "includeAddressInTax",
      "outputs": [
        {
          "internalType": "bool",
          "name": "",
          "type": "bool"
        }
      ],
      "stateMutability": "nonpayable",
      "type": "function"
    },
    {
      "inputs": [],
      "name": "isOperator",
      "outputs": [
        {
          "internalType": "bool",
          "name": "",
          "type": "bool"
        }
      ],
      "stateMutability": "view",
      "type": "function"
    },
    {
      "inputs": [],
      "name": "kitty",
      "outputs": [
        {
          "internalType": "address",
          "name": "",
          "type": "address"
        }
      ],
      "stateMutability": "view",
      "type": "function"
    },
    {
      "inputs": [],
      "name": "operator",
      "outputs": [
        {
          "internalType": "address",
          "name": "",
          "type": "address"
        }
      ],
      "stateMutability": "view",
      "type": "function"
    },
    {
      "inputs": [],
      "name": "owner",
      "outputs": [
        {
          "internalType": "address",
          "name": "",
          "type": "address"
        }
      ],
      "stateMutability": "view",
      "type": "function"
    },
    {
      "inputs": [],
      "name": "renounceOwnership",
      "outputs": [],
      "stateMutability": "nonpayable",
      "type": "function"
    },
    {
      "inputs": [
        {
          "internalType": "uint256",
          "name": "_burnThreshold",
          "type": "uint256"
        }
      ],
      "name": "setBurnThreshold",
      "outputs": [],
      "stateMutability": "nonpayable",
      "type": "function"
    },
    {
      "inputs": [
        {
          "internalType": "address",
          "name": "_taxCollectorAddress",
          "type": "address"
        }
      ],
      "name": "setTaxCollectorAddress",
      "outputs": [],
      "stateMutability": "nonpayable",
      "type": "function"
    },
    {
      "inputs": [
        {
          "internalType": "address",
          "name": "_address",
          "type": "address"
        },
        {
          "internalType": "bool",
          "name": "_excluded",
          "type": "bool"
        }
      ],
      "name": "setTaxExclusionForAddress",
      "outputs": [],
      "stateMutability": "nonpayable",
      "type": "function"
    },
    {
      "inputs": [
        {
          "internalType": "uint256",
          "name": "_taxRate",
          "type": "uint256"
        }
      ],
      "name": "setTaxRate",
      "outputs": [],
      "stateMutability": "nonpayable",
      "type": "function"
    },
    {
      "inputs": [
        {
          "internalType": "uint8",
          "name": "_index",
          "type": "uint8"
        },
        {
          "internalType": "uint256",
          "name": "_value",
          "type": "uint256"
        }
      ],
      "name": "setTaxTiersRate",
      "outputs": [
        {
          "internalType": "bool",
          "name": "",
          "type": "bool"
        }
      ],
      "stateMutability": "nonpayable",
      "type": "function"
    },
    {
      "inputs": [
        {
          "internalType": "uint8",
          "name": "_index",
          "type": "uint8"
        },
        {
          "internalType": "uint256",
          "name": "_value",
          "type": "uint256"
        }
      ],
      "name": "setTaxTiersTwap",
      "outputs": [
        {
          "internalType": "bool",
          "name": "",
          "type": "bool"
        }
      ],
      "stateMutability": "nonpayable",
      "type": "function"
    },
    {
      "inputs": [
        {
          "internalType": "address",
          "name": "_kittyOracle",
          "type": "address"
        }
      ],
      "name": "setTaxableKittyOracle",
      "outputs": [],
      "stateMutability": "nonpayable",
      "type": "function"
    },
    {
      "inputs": [
        {
          "internalType": "address",
          "name": "",
          "type": "address"
        }
      ],
      "name": "taxExclusionEnabled",
      "outputs": [
        {
          "internalType": "bool",
          "name": "",
          "type": "bool"
        }
      ],
      "stateMutability": "view",
      "type": "function"
    },
    {
      "inputs": [
        {
          "internalType": "address",
          "name": "_sender",
          "type": "address"
        },
        {
          "internalType": "address",
          "name": "_recipient",
          "type": "address"
        },
        {
          "internalType": "uint256",
          "name": "_amt",
          "type": "uint256"
        }
      ],
      "name": "taxFreeTransferFrom",
      "outputs": [],
      "stateMutability": "nonpayable",
      "type": "function"
    },
    {
      "inputs": [],
      "name": "taxRate",
      "outputs": [
        {
          "internalType": "uint256",
          "name": "",
          "type": "uint256"
        }
      ],
      "stateMutability": "nonpayable",
      "type": "function"
    },
    {
      "inputs": [
        {
          "internalType": "address",
          "name": "newOperator_",
          "type": "address"
        }
      ],
      "name": "transferOperator",
      "outputs": [],
      "stateMutability": "nonpayable",
      "type": "function"
    },
    {
      "inputs": [
        {
          "internalType": "address",
          "name": "newOwner",
          "type": "address"
        }
      ],
      "name": "transferOwnership",
      "outputs": [],
      "stateMutability": "nonpayable",
      "type": "function"
    },
    {
      "inputs": [
        {
          "internalType": "address",
          "name": "_newTaxOffice",
          "type": "address"
        }
      ],
      "name": "transferTaxOffice",
      "outputs": [],
      "stateMutability": "nonpayable",
      "type": "function"
    },
    {
      "inputs": [],
      "name": "uniRouter",
      "outputs": [
        {
          "internalType": "address",
          "name": "",
          "type": "address"
        }
      ],
      "stateMutability": "view",
      "type": "function"
    },
    {
      "inputs": [],
      "name": "weth",
      "outputs": [
        {
          "internalType": "address",
          "name": "",
          "type": "address"
        }
      ],
      "stateMutability": "view",
      "type": "function"
    }
  ],
  "transactionHash": "0x8d9e45531b8fbaf36fdf02e1cc234fb40572bb2a995ad1e8771103db29d5b2d4",
  "args": [],
  "solcInputHash": "d63e44ed8deab339d0eca9c31360ed01",
  "bytecode": "0x6080604052600280546001600160a01b031990811673522348779dcb2911539e76a1042aa922f9c47ee31790915560038054821673bb4cdb9cbd36b01bd1cbaebf2de08d9173bc095c179055600480549091167310ed43c718714eb63d5aa57b78b54704e256024e17905534801561007657600080fd5b506000610081610124565b600080546001600160a01b0319166001600160a01b0383169081178255604051929350917f8be0079c531659141344cd1fd0a4f28419497f9722a3daafe3b4186f6b6457e0908290a3506100d3610124565b600180546001600160a01b0319166001600160a01b0392831617908190556040519116906000907f74da04524d50c64947f5dd5381ef1a4dca5cba8ed1d816243f9e48aa0b5617ed908290a3610128565b3390565b611c1b806101376000396000f3fe6080604052600436106101815760003560e01c80637fcd79c7116100d1578063be94f86b1161008a578063e1d8752e11610064578063e1d8752e14610528578063f1efacf91461056b578063f2fde38b146105b6578063ff87fc7c146105e957610181565b8063be94f86b14610498578063c6d69a30146104cb578063d1d31a37146104f557610181565b80637fcd79c7146103a35780638da5cb5b146103de5780639d6b5f21146103f3578063a00bc2b91461041d578063a0e47bf614610450578063b87c5a4a1461046557610181565b8063570ca7351161013e57806369356d471161011857806369356d47146102ed578063715018a61461032057806373baccc014610335578063771a3a1d1461037c57610181565b8063570ca7351461029057806365bbacd9146102a557806366206ce9146102ba57610181565b80630baccd751461018657806313762bdc146101b757806319db099d146101fe57806329605e77146102315780633fc8cef3146102665780634456eda21461027b575b600080fd5b34801561019257600080fd5b5061019b6105fe565b604080516001600160a01b039092168252519081900360200190f35b3480156101c357600080fd5b506101ea600480360360208110156101da57600080fd5b50356001600160a01b031661060d565b604080519115158252519081900360200190f35b34801561020a57600080fd5b506101ea6004803603602081101561022157600080fd5b50356001600160a01b0316610622565b34801561023d57600080fd5b506102646004803603602081101561025457600080fd5b50356001600160a01b031661067f565b005b34801561027257600080fd5b5061019b6106ff565b34801561028757600080fd5b506101ea61070e565b34801561029c57600080fd5b5061019b610734565b3480156102b157600080fd5b50610264610743565b3480156102c657600080fd5b506101ea600480360360408110156102dd57600080fd5b5060ff81351690602001356107f6565b3480156102f957600080fd5b506102646004803603602081101561031057600080fd5b50356001600160a01b03166108cc565b34801561032c57600080fd5b5061026461097e565b61035e6004803603606081101561034b57600080fd5b5080359060208101359060400135610a3c565b60408051938452602084019290925282820152519081900360600190f35b34801561038857600080fd5b50610391610cb5565b60408051918252519081900360200190f35b3480156103af57600080fd5b50610264600480360360408110156103c657600080fd5b506001600160a01b0381351690602001351515610d2c565b3480156103ea57600080fd5b5061019b610da0565b3480156103ff57600080fd5b506102646004803603602081101561041657600080fd5b5035610daf565b34801561042957600080fd5b506102646004803603602081101561044057600080fd5b50356001600160a01b0316610e45565b34801561045c57600080fd5b5061019b610edc565b34801561047157600080fd5b506101ea6004803603604081101561048857600080fd5b5060ff8135169060200135610eeb565b3480156104a457600080fd5b506101ea600480360360208110156104bb57600080fd5b50356001600160a01b0316610f8e565b3480156104d757600080fd5b50610264600480360360208110156104ee57600080fd5b5035610fe3565b34801561050157600080fd5b506102646004803603602081101561051857600080fd5b50356001600160a01b0316611079565b34801561053457600080fd5b506102646004803603606081101561054b57600080fd5b506001600160a01b03813581169160208101359091169060400135611110565b34801561057757600080fd5b5061035e600480360360a081101561058e57600080fd5b506001600160a01b0381351690602081013590604081013590606081013590608001356111fc565b3480156105c257600080fd5b50610264600480360360208110156105d957600080fd5b50356001600160a01b03166115bb565b3480156105f557600080fd5b506102646116cf565b6002546001600160a01b031681565b60056020526000908152604090205460ff1681565b6001546000906001600160a01b0316331461066e5760405162461bcd60e51b8152600401808060200182810382526024815260200180611bc26024913960400191505060405180910390fd5b61067782611768565b90505b919050565b61068761186d565b6001600160a01b0316610698610da0565b6001600160a01b0316146106f3576040805162461bcd60e51b815260206004820181905260248201527f4f776e61626c653a2063616c6c6572206973206e6f7420746865206f776e6572604482015290519081900360640190fd5b6106fc81611871565b50565b6003546001600160a01b031681565b6001546000906001600160a01b031661072561186d565b6001600160a01b031614905090565b6001546001600160a01b031690565b6001546001600160a01b0316331461078c5760405162461bcd60e51b8152600401808060200182810382526024815260200180611bc26024913960400191505060405180910390fd5b600260009054906101000a90046001600160a01b03166001600160a01b03166365bbacd96040518163ffffffff1660e01b8152600401600060405180830381600087803b1580156107dc57600080fd5b505af11580156107f0573d6000803e3d6000fd5b50505050565b6001546000906001600160a01b031633146108425760405162461bcd60e51b8152600401808060200182810382526024815260200180611bc26024913960400191505060405180910390fd5b600254604080516366206ce960e01b815260ff861660048201526024810185905290516001600160a01b03909216916366206ce9916044808201926020929091908290030181600087803b15801561089957600080fd5b505af11580156108ad573d6000803e3d6000fd5b505050506040513d60208110156108c357600080fd5b50519392505050565b6001546001600160a01b031633146109155760405162461bcd60e51b8152600401808060200182810382526024815260200180611bc26024913960400191505060405180910390fd5b600254604080516369356d4760e01b81526001600160a01b038481166004830152915191909216916369356d4791602480830192600092919082900301818387803b15801561096357600080fd5b505af1158015610977573d6000803e3d6000fd5b5050505050565b61098661186d565b6001600160a01b0316610997610da0565b6001600160a01b0316146109f2576040805162461bcd60e51b815260206004820181905260248201527f4f776e61626c653a2063616c6c6572206973206e6f7420746865206f776e6572604482015290519081900360640190fd5b600080546040516001600160a01b03909116907f8be0079c531659141344cd1fd0a4f28419497f9722a3daafe3b4186f6b6457e0908390a3600080546001600160a01b0319169055565b600080808515801590610a4e57503415155b610a94576040805162461bcd60e51b81526020600482015260126024820152710616d6f756e74732063616e277420626520360741b604482015290519081900360640190fd5b610a9d3361190e565b50600254604080516323b872dd60e01b81523360048201523060248201526044810189905290516001600160a01b03909216916323b872dd916064808201926020929091908290030181600087803b158015610af857600080fd5b505af1158015610b0c573d6000803e3d6000fd5b505050506040513d6020811015610b2257600080fd5b5050600254600454610b40916001600160a01b0390811691166119df565b610b4933611768565b50600480546002546040805163f305d71960e01b81526001600160a01b0392831694810194909452602484018a905260448401899052606484018890523360848501524260a48501525160009384938493169163f305d71991349160c480830192606092919082900301818588803b158015610bc457600080fd5b505af1158015610bd8573d6000803e3d6000fd5b50505050506040513d6060811015610bef57600080fd5b508051602082015160409092015190945090925090506000610c118a85611ae6565b1115610ca6576002546001600160a01b031663a9059cbb33610c338c87611ae6565b6040518363ffffffff1660e01b815260040180836001600160a01b0316815260200182815260200192505050602060405180830381600087803b158015610c7957600080fd5b505af1158015610c8d573d6000803e3d6000fd5b505050506040513d6020811015610ca357600080fd5b50505b91989097509095509350505050565b6002546040805163771a3a1d60e01b815290516000926001600160a01b03169163771a3a1d91600480830192602092919082900301818787803b158015610cfb57600080fd5b505af1158015610d0f573d6000803e3d6000fd5b505050506040513d6020811015610d2557600080fd5b5051905090565b6001546001600160a01b03163314610d755760405162461bcd60e51b8152600401808060200182810382526024815260200180611bc26024913960400191505060405180910390fd5b6001600160a01b03919091166000908152600560205260409020805460ff1916911515919091179055565b6000546001600160a01b031690565b6001546001600160a01b03163314610df85760405162461bcd60e51b8152600401808060200182810382526024815260200180611bc26024913960400191505060405180910390fd5b60025460408051639d6b5f2160e01b81526004810184905290516001600160a01b0390921691639d6b5f219160248082019260009290919082900301818387803b15801561096357600080fd5b6001546001600160a01b03163314610e8e5760405162461bcd60e51b8152600401808060200182810382526024815260200180611bc26024913960400191505060405180910390fd5b6002546040805163bc94cf4360e01b81526001600160a01b0384811660048301529151919092169163bc94cf4391602480830192600092919082900301818387803b15801561096357600080fd5b6004546001600160a01b031681565b6001546000906001600160a01b03163314610f375760405162461bcd60e51b8152600401808060200182810382526024815260200180611bc26024913960400191505060405180910390fd5b60025460408051635c3e2d2560e11b815260ff861660048201526024810185905290516001600160a01b039092169163b87c5a4a916044808201926020929091908290030181600087803b15801561089957600080fd5b6001546000906001600160a01b03163314610fda5760405162461bcd60e51b8152600401808060200182810382526024815260200180611bc26024913960400191505060405180910390fd5b6106778261190e565b6001546001600160a01b0316331461102c5760405162461bcd60e51b8152600401808060200182810382526024815260200180611bc26024913960400191505060405180910390fd5b60025460408051630c6d69a360e41b81526004810184905290516001600160a01b039092169163c6d69a309160248082019260009290919082900301818387803b15801561096357600080fd5b6001546001600160a01b031633146110c25760405162461bcd60e51b8152600401808060200182810382526024815260200180611bc26024913960400191505060405180910390fd5b60025460408051631f83ebb560e11b81526001600160a01b03848116600483015291519190921691633f07d76a91602480830192600092919082900301818387803b15801561096357600080fd5b3360009081526005602052604090205460ff1661115e5760405162461bcd60e51b815260040180806020018281038252602b815260200180611b6a602b913960400191505060405180910390fd5b6111678361190e565b50600254604080516323b872dd60e01b81526001600160a01b038681166004830152858116602483015260448201859052915191909216916323b872dd9160648083019260209291908290030181600087803b1580156111c657600080fd5b505af11580156111da573d6000803e3d6000fd5b505050506040513d60208110156111f057600080fd5b506107f0905083611768565b60008080861580159061120e57508515155b611254576040805162461bcd60e51b81526020600482015260126024820152710616d6f756e74732063616e277420626520360741b604482015290519081900360640190fd5b61125d3361190e565b50600254604080516323b872dd60e01b8152336004820152306024820152604481018a905290516001600160a01b03909216916323b872dd916064808201926020929091908290030181600087803b1580156112b857600080fd5b505af11580156112cc573d6000803e3d6000fd5b505050506040513d60208110156112e257600080fd5b5050604080516323b872dd60e01b81523360048201523060248201526044810188905290516001600160a01b038a16916323b872dd9160648083019260209291908290030181600087803b15801561133957600080fd5b505af115801561134d573d6000803e3d6000fd5b505050506040513d602081101561136357600080fd5b5050600254600454611381916001600160a01b0390811691166119df565b6004546113989089906001600160a01b03166119df565b6113a133611768565b50600480546002546040805162e8e33760e81b81526001600160a01b03928316948101949094528b82166024850152604484018b9052606484018a90526084840189905260a484018890523360c48501524260e48501525160009384938493169163e8e33700916101048082019260609290919082900301818787803b15801561142a57600080fd5b505af115801561143e573d6000803e3d6000fd5b505050506040513d606081101561145457600080fd5b5080516020820151604090920151909450909250905060006114768b85611ae6565b111561150b576002546001600160a01b031663a9059cbb336114988d87611ae6565b6040518363ffffffff1660e01b815260040180836001600160a01b0316815260200182815260200192505050602060405180830381600087803b1580156114de57600080fd5b505af11580156114f2573d6000803e3d6000fd5b505050506040513d602081101561150857600080fd5b50505b60006115178a84611ae6565b11156115aa576001600160a01b038b1663a9059cbb336115378c86611ae6565b6040518363ffffffff1660e01b815260040180836001600160a01b0316815260200182815260200192505050602060405180830381600087803b15801561157d57600080fd5b505af1158015611591573d6000803e3d6000fd5b505050506040513d60208110156115a757600080fd5b50505b919a90995090975095505050505050565b6115c361186d565b6001600160a01b03166115d4610da0565b6001600160a01b03161461162f576040805162461bcd60e51b815260206004820181905260248201527f4f776e61626c653a2063616c6c6572206973206e6f7420746865206f776e6572604482015290519081900360640190fd5b6001600160a01b0381166116745760405162461bcd60e51b8152600401808060200182810382526026815260200180611b446026913960400191505060405180910390fd5b600080546040516001600160a01b03808516939216917f8be0079c531659141344cd1fd0a4f28419497f9722a3daafe3b4186f6b6457e091a3600080546001600160a01b0319166001600160a01b0392909216919091179055565b6001546001600160a01b031633146117185760405162461bcd60e51b8152600401808060200182810382526024815260200180611bc26024913960400191505060405180910390fd5b600260009054906101000a90046001600160a01b03166001600160a01b031663ff87fc7c6040518163ffffffff1660e01b8152600401600060405180830381600087803b1580156107dc57600080fd5b6002546040805163ebca1bd960e01b81526001600160a01b0384811660048301529151600093929092169163ebca1bd99160248082019260209290919082900301818787803b1580156117ba57600080fd5b505af11580156117ce573d6000803e3d6000fd5b505050506040513d60208110156117e457600080fd5b50511561067a57600254604080516393995d4b60e01b81526001600160a01b038581166004830152915191909216916393995d4b9160248083019260209291908290030181600087803b15801561183a57600080fd5b505af115801561184e573d6000803e3d6000fd5b505050506040513d602081101561186457600080fd5b5051905061067a565b3390565b6001600160a01b0381166118b65760405162461bcd60e51b815260040180806020018281038252602d815260200180611b95602d913960400191505060405180910390fd5b6040516001600160a01b038216906000907f74da04524d50c64947f5dd5381ef1a4dca5cba8ed1d816243f9e48aa0b5617ed908290a3600180546001600160a01b0319166001600160a01b0392909216919091179055565b6002546040805163ebca1bd960e01b81526001600160a01b0384811660048301529151600093929092169163ebca1bd99160248082019260209290919082900301818787803b15801561196057600080fd5b505af1158015611974573d6000803e3d6000fd5b505050506040513d602081101561198a57600080fd5b505161067a5760025460408051631bac736760e11b81526001600160a01b03858116600483015291519190921691633758e6ce9160248083019260209291908290030181600087803b15801561183a57600080fd5b60408051636eb1769f60e11b81523060048201526001600160a01b03838116602483015291519184169163dd62ed3e91604480820192602092909190829003018186803b158015611a2f57600080fd5b505afa158015611a43573d6000803e3d6000fd5b505050506040513d6020811015611a5957600080fd5b5051611ae257816001600160a01b031663095ea7b3826000196040518363ffffffff1660e01b815260040180836001600160a01b0316815260200182815260200192505050602060405180830381600087803b158015611ab857600080fd5b505af1158015611acc573d6000803e3d6000fd5b505050506040513d60208110156107f057600080fd5b5050565b600082821115611b3d576040805162461bcd60e51b815260206004820152601e60248201527f536166654d6174683a207375627472616374696f6e206f766572666c6f770000604482015290519081900360640190fd5b5090039056fe4f776e61626c653a206e6577206f776e657220697320746865207a65726f206164647265737341646472657373206e6f7420617070726f76656420666f72207461782066726565207472616e73666572736f70657261746f723a207a65726f206164647265737320676976656e20666f72206e6577206f70657261746f726f70657261746f723a2063616c6c6572206973206e6f7420746865206f70657261746f72a264697066735822122033ca34b29177b343463139d7bb469aaaab94050a3654536ce125aab17b5c683d64736f6c634300060c0033",
  "devdoc": {
    "kind": "dev",
    "methods": {
      "owner()": {
        "details": "Returns the address of the current owner."
      },
      "renounceOwnership()": {
        "details": "Leaves the contract without owner. It will not be possible to call `onlyOwner` functions anymore. Can only be called by the current owner. NOTE: Renouncing ownership will leave the contract without an owner, thereby removing any functionality that is only available to the owner."
      },
      "transferOwnership(address)": {
        "details": "Transfers ownership of the contract to a new account (`newOwner`). Can only be called by the current owner."
      }
    },
    "version": 1
  },
  "userdoc": {
    "kind": "user",
    "methods": {},
    "version": 1
  },
  "storageLayout": {
    "storage": [
      {
        "astId": 10,
        "contract": "contracts/TaxOfficeV2.sol:TaxOfficeV2",
        "label": "_owner",
        "offset": 0,
        "slot": "0",
        "type": "t_address"
      },
      {
        "astId": 13437,
        "contract": "contracts/TaxOfficeV2.sol:TaxOfficeV2",
        "label": "_operator",
        "offset": 0,
        "slot": "1",
        "type": "t_address"
      },
      {
        "astId": 4711,
        "contract": "contracts/TaxOfficeV2.sol:TaxOfficeV2",
        "label": "kitty",
        "offset": 0,
        "slot": "2",
        "type": "t_address"
      },
      {
        "astId": 4717,
        "contract": "contracts/TaxOfficeV2.sol:TaxOfficeV2",
        "label": "weth",
        "offset": 0,
        "slot": "3",
        "type": "t_address"
      },
      {
        "astId": 4723,
        "contract": "contracts/TaxOfficeV2.sol:TaxOfficeV2",
        "label": "uniRouter",
        "offset": 0,
        "slot": "4",
        "type": "t_address"
      },
      {
        "astId": 4727,
        "contract": "contracts/TaxOfficeV2.sol:TaxOfficeV2",
        "label": "taxExclusionEnabled",
        "offset": 0,
        "slot": "5",
        "type": "t_mapping(t_address,t_bool)"
      }
    ],
    "types": {
      "t_address": {
        "encoding": "inplace",
        "label": "address",
        "numberOfBytes": "20"
      },
      "t_bool": {
        "encoding": "inplace",
        "label": "bool",
        "numberOfBytes": "1"
      },
      "t_mapping(t_address,t_bool)": {
        "encoding": "mapping",
        "key": "t_address",
        "label": "mapping(address => bool)",
        "numberOfBytes": "32",
        "value": "t_bool"
      }
    }
  }
}