{
  "address": "0xf3FA4750583Fa421bD1C8186e4CEb652E98F5740",
  "abi": [
    {
      "anonymous": false,
      "inputs": [
        {
          "indexed": true,
          "internalType": "address",
          "name": "from",
          "type": "address"
        },
        {
          "indexed": false,
          "internalType": "uint256",
          "name": "kittyAmount",
          "type": "uint256"
        },
        {
          "indexed": false,
          "internalType": "uint256",
          "name": "bondAmount",
          "type": "uint256"
        }
      ],
      "name": "BoughtBonds",
      "type": "event"
    },
    {
      "anonymous": false,
      "inputs": [
        {
          "indexed": true,
          "internalType": "address",
          "name": "from",
          "type": "address"
        },
        {
          "indexed": false,
          "internalType": "uint256",
          "name": "bondAmount",
          "type": "uint256"
        }
      ],
      "name": "BurnedBonds",
      "type": "event"
    },
    {
      "anonymous": false,
      "inputs": [
        {
          "indexed": false,
          "internalType": "uint256",
          "name": "timestamp",
          "type": "uint256"
        },
        {
          "indexed": false,
          "internalType": "uint256",
          "name": "seigniorage",
          "type": "uint256"
        }
      ],
      "name": "DaoFundFunded",
      "type": "event"
    },
    {
      "anonymous": false,
      "inputs": [
        {
          "indexed": false,
          "internalType": "uint256",
          "name": "timestamp",
          "type": "uint256"
        },
        {
          "indexed": false,
          "internalType": "uint256",
          "name": "seigniorage",
          "type": "uint256"
        }
      ],
      "name": "DevFundFunded",
      "type": "event"
    },
    {
      "anonymous": false,
      "inputs": [
        {
          "indexed": true,
          "internalType": "address",
          "name": "executor",
          "type": "address"
        },
        {
          "indexed": false,
          "internalType": "uint256",
          "name": "at",
          "type": "uint256"
        }
      ],
      "name": "Initialized",
      "type": "event"
    },
    {
      "anonymous": false,
      "inputs": [
        {
          "indexed": false,
          "internalType": "uint256",
          "name": "timestamp",
          "type": "uint256"
        },
        {
          "indexed": false,
          "internalType": "uint256",
          "name": "seigniorage",
          "type": "uint256"
        }
      ],
      "name": "NurseryFunded",
      "type": "event"
    },
    {
      "anonymous": false,
      "inputs": [
        {
          "indexed": true,
          "internalType": "address",
          "name": "from",
          "type": "address"
        },
        {
          "indexed": false,
          "internalType": "uint256",
          "name": "kittyAmount",
          "type": "uint256"
        },
        {
          "indexed": false,
          "internalType": "uint256",
          "name": "bondAmount",
          "type": "uint256"
        }
      ],
      "name": "RedeemedBonds",
      "type": "event"
    },
    {
      "anonymous": false,
      "inputs": [
        {
          "indexed": false,
          "internalType": "uint256",
          "name": "timestamp",
          "type": "uint256"
        },
        {
          "indexed": false,
          "internalType": "uint256",
          "name": "seigniorage",
          "type": "uint256"
        }
      ],
      "name": "TeamFundFunded",
      "type": "event"
    },
    {
      "anonymous": false,
      "inputs": [
        {
          "indexed": false,
          "internalType": "uint256",
          "name": "timestamp",
          "type": "uint256"
        },
        {
          "indexed": false,
          "internalType": "uint256",
          "name": "seigniorage",
          "type": "uint256"
        }
      ],
      "name": "TreasuryFunded",
      "type": "event"
    },
    {
      "inputs": [],
      "name": "PERIOD",
      "outputs": [
        {
          "internalType": "uint256",
          "name": "",
          "type": "uint256"
        }
      ],
      "stateMutability": "view",
      "type": "function"
    },
    {
      "inputs": [],
      "name": "allocateSeigniorage",
      "outputs": [],
      "stateMutability": "nonpayable",
      "type": "function"
    },
    {
      "inputs": [],
      "name": "bbond",
      "outputs": [
        {
          "internalType": "address",
          "name": "",
          "type": "address"
        }
      ],
      "stateMutability": "view",
      "type": "function"
    },
    {
      "inputs": [],
      "name": "bondDepletionFloorPercent",
      "outputs": [
        {
          "internalType": "uint256",
          "name": "",
          "type": "uint256"
        }
      ],
      "stateMutability": "view",
      "type": "function"
    },
    {
      "inputs": [],
      "name": "bootstrapEpochs",
      "outputs": [
        {
          "internalType": "uint256",
          "name": "",
          "type": "uint256"
        }
      ],
      "stateMutability": "view",
      "type": "function"
    },
    {
      "inputs": [],
      "name": "bootstrapSupplyExpansionPercent",
      "outputs": [
        {
          "internalType": "uint256",
          "name": "",
          "type": "uint256"
        }
      ],
      "stateMutability": "view",
      "type": "function"
    },
    {
      "inputs": [],
      "name": "bshare",
      "outputs": [
        {
          "internalType": "address",
          "name": "",
          "type": "address"
        }
      ],
      "stateMutability": "view",
      "type": "function"
    },
    {
      "inputs": [
        {
          "internalType": "uint256",
          "name": "_kittyAmount",
          "type": "uint256"
        },
        {
          "internalType": "uint256",
          "name": "targetPrice",
          "type": "uint256"
        }
      ],
      "name": "buyBonds",
      "outputs": [],
      "stateMutability": "nonpayable",
      "type": "function"
    },
    {
      "inputs": [],
      "name": "daoFund",
      "outputs": [
        {
          "internalType": "address",
          "name": "",
          "type": "address"
        }
      ],
      "stateMutability": "view",
      "type": "function"
    },
    {
      "inputs": [],
      "name": "daoFundSharedPercent",
      "outputs": [
        {
          "internalType": "uint256",
          "name": "",
          "type": "uint256"
        }
      ],
      "stateMutability": "view",
      "type": "function"
    },
    {
      "inputs": [],
      "name": "devFund",
      "outputs": [
        {
          "internalType": "address",
          "name": "",
          "type": "address"
        }
      ],
      "stateMutability": "view",
      "type": "function"
    },
    {
      "inputs": [],
      "name": "devFundSharedPercent",
      "outputs": [
        {
          "internalType": "uint256",
          "name": "",
          "type": "uint256"
        }
      ],
      "stateMutability": "view",
      "type": "function"
    },
    {
      "inputs": [],
      "name": "discountPercent",
      "outputs": [
        {
          "internalType": "uint256",
          "name": "",
          "type": "uint256"
        }
      ],
      "stateMutability": "view",
      "type": "function"
    },
    {
      "inputs": [],
      "name": "epoch",
      "outputs": [
        {
          "internalType": "uint256",
          "name": "",
          "type": "uint256"
        }
      ],
      "stateMutability": "view",
      "type": "function"
    },
    {
      "inputs": [],
      "name": "epochSupplyContractionLeft",
      "outputs": [
        {
          "internalType": "uint256",
          "name": "",
          "type": "uint256"
        }
      ],
      "stateMutability": "view",
      "type": "function"
    },
    {
      "inputs": [],
      "name": "getBondDiscountRate",
      "outputs": [
        {
          "internalType": "uint256",
          "name": "_rate",
          "type": "uint256"
        }
      ],
      "stateMutability": "view",
      "type": "function"
    },
    {
      "inputs": [],
      "name": "getBondPremiumRate",
      "outputs": [
        {
          "internalType": "uint256",
          "name": "_rate",
          "type": "uint256"
        }
      ],
      "stateMutability": "view",
      "type": "function"
    },
    {
      "inputs": [],
      "name": "getBurnableKittyLeft",
      "outputs": [
        {
          "internalType": "uint256",
          "name": "_burnableKittyLeft",
          "type": "uint256"
        }
      ],
      "stateMutability": "view",
      "type": "function"
    },
    {
      "inputs": [],
      "name": "getKittyCirculatingSupply",
      "outputs": [
        {
          "internalType": "uint256",
          "name": "",
          "type": "uint256"
        }
      ],
      "stateMutability": "view",
      "type": "function"
    },
    {
      "inputs": [],
      "name": "getKittyPrice",
      "outputs": [
        {
          "internalType": "uint256",
          "name": "kittyPrice",
          "type": "uint256"
        }
      ],
      "stateMutability": "view",
      "type": "function"
    },
    {
      "inputs": [],
      "name": "getKittyUpdatedPrice",
      "outputs": [
        {
          "internalType": "uint256",
          "name": "_kittyPrice",
          "type": "uint256"
        }
      ],
      "stateMutability": "view",
      "type": "function"
    },
    {
      "inputs": [],
      "name": "getRedeemableBonds",
      "outputs": [
        {
          "internalType": "uint256",
          "name": "_redeemableBonds",
          "type": "uint256"
        }
      ],
      "stateMutability": "view",
      "type": "function"
    },
    {
      "inputs": [],
      "name": "getReserve",
      "outputs": [
        {
          "internalType": "uint256",
          "name": "",
          "type": "uint256"
        }
      ],
      "stateMutability": "view",
      "type": "function"
    },
    {
      "inputs": [
        {
          "internalType": "contract IERC20",
          "name": "_token",
          "type": "address"
        },
        {
          "internalType": "uint256",
          "name": "_amount",
          "type": "uint256"
        },
        {
          "internalType": "address",
          "name": "_to",
          "type": "address"
        }
      ],
      "name": "governanceRecoverUnsupported",
      "outputs": [],
      "stateMutability": "nonpayable",
      "type": "function"
    },
    {
      "inputs": [
        {
          "internalType": "address",
          "name": "_kitty",
          "type": "address"
        },
        {
          "internalType": "address",
          "name": "_bbond",
          "type": "address"
        },
        {
          "internalType": "address",
          "name": "_bshare",
          "type": "address"
        },
        {
          "internalType": "address",
          "name": "_kittyOracle",
          "type": "address"
        },
        {
          "internalType": "address",
          "name": "_nursery",
          "type": "address"
        },
        {
          "internalType": "uint256",
          "name": "_startTime",
          "type": "uint256"
        }
      ],
      "name": "initialize",
      "outputs": [],
      "stateMutability": "nonpayable",
      "type": "function"
    },
    {
      "inputs": [],
      "name": "initialized",
      "outputs": [
        {
          "internalType": "bool",
          "name": "",
          "type": "bool"
        }
      ],
      "stateMutability": "view",
      "type": "function"
    },
    {
      "inputs": [],
      "name": "isInitialized",
      "outputs": [
        {
          "internalType": "bool",
          "name": "",
          "type": "bool"
        }
      ],
      "stateMutability": "view",
      "type": "function"
    },
    {
      "inputs": [],
      "name": "kitty",
      "outputs": [
        {
          "internalType": "address",
          "name": "",
          "type": "address"
        }
      ],
      "stateMutability": "view",
      "type": "function"
    },
    {
      "inputs": [],
      "name": "kittyOracle",
      "outputs": [
        {
          "internalType": "address",
          "name": "",
          "type": "address"
        }
      ],
      "stateMutability": "view",
      "type": "function"
    },
    {
      "inputs": [],
      "name": "kittyPriceCeiling",
      "outputs": [
        {
          "internalType": "uint256",
          "name": "",
          "type": "uint256"
        }
      ],
      "stateMutability": "view",
      "type": "function"
    },
    {
      "inputs": [],
      "name": "kittyPriceOne",
      "outputs": [
        {
          "internalType": "uint256",
          "name": "",
          "type": "uint256"
        }
      ],
      "stateMutability": "view",
      "type": "function"
    },
    {
      "inputs": [],
      "name": "maxDebtRatioPercent",
      "outputs": [
        {
          "internalType": "uint256",
          "name": "",
          "type": "uint256"
        }
      ],
      "stateMutability": "view",
      "type": "function"
    },
    {
      "inputs": [],
      "name": "maxDiscountRate",
      "outputs": [
        {
          "internalType": "uint256",
          "name": "",
          "type": "uint256"
        }
      ],
      "stateMutability": "view",
      "type": "function"
    },
    {
      "inputs": [
        {
          "internalType": "uint256",
          "name": "",
          "type": "uint256"
        }
      ],
      "name": "maxExpansionTiers",
      "outputs": [
        {
          "internalType": "uint256",
          "name": "",
          "type": "uint256"
        }
      ],
      "stateMutability": "view",
      "type": "function"
    },
    {
      "inputs": [],
      "name": "maxPremiumRate",
      "outputs": [
        {
          "internalType": "uint256",
          "name": "",
          "type": "uint256"
        }
      ],
      "stateMutability": "view",
      "type": "function"
    },
    {
      "inputs": [],
      "name": "maxSupplyContractionPercent",
      "outputs": [
        {
          "internalType": "uint256",
          "name": "",
          "type": "uint256"
        }
      ],
      "stateMutability": "view",
      "type": "function"
    },
    {
      "inputs": [],
      "name": "maxSupplyExpansionPercent",
      "outputs": [
        {
          "internalType": "uint256",
          "name": "",
          "type": "uint256"
        }
      ],
      "stateMutability": "view",
      "type": "function"
    },
    {
      "inputs": [],
      "name": "mintingFactorForPayingDebt",
      "outputs": [
        {
          "internalType": "uint256",
          "name": "",
          "type": "uint256"
        }
      ],
      "stateMutability": "view",
      "type": "function"
    },
    {
      "inputs": [],
      "name": "nextEpochPoint",
      "outputs": [
        {
          "internalType": "uint256",
          "name": "",
          "type": "uint256"
        }
      ],
      "stateMutability": "view",
      "type": "function"
    },
    {
      "inputs": [],
      "name": "nursery",
      "outputs": [
        {
          "internalType": "address",
          "name": "",
          "type": "address"
        }
      ],
      "stateMutability": "view",
      "type": "function"
    },
    {
      "inputs": [
        {
          "internalType": "uint256",
          "name": "amount",
          "type": "uint256"
        }
      ],
      "name": "nurseryAllocateSeigniorage",
      "outputs": [],
      "stateMutability": "nonpayable",
      "type": "function"
    },
    {
      "inputs": [
        {
          "internalType": "address",
          "name": "_token",
          "type": "address"
        },
        {
          "internalType": "uint256",
          "name": "_amount",
          "type": "uint256"
        },
        {
          "internalType": "address",
          "name": "_to",
          "type": "address"
        }
      ],
      "name": "nurseryGovernanceRecoverUnsupported",
      "outputs": [],
      "stateMutability": "nonpayable",
      "type": "function"
    },
    {
      "inputs": [
        {
          "internalType": "uint256",
          "name": "_withdrawLockupEpochs",
          "type": "uint256"
        },
        {
          "internalType": "uint256",
          "name": "_rewardLockupEpochs",
          "type": "uint256"
        }
      ],
      "name": "nurserySetLockUp",
      "outputs": [],
      "stateMutability": "nonpayable",
      "type": "function"
    },
    {
      "inputs": [
        {
          "internalType": "address",
          "name": "_operator",
          "type": "address"
        }
      ],
      "name": "nurserySetOperator",
      "outputs": [],
      "stateMutability": "nonpayable",
      "type": "function"
    },
    {
      "inputs": [],
      "name": "operator",
      "outputs": [
        {
          "internalType": "address",
          "name": "",
          "type": "address"
        }
      ],
      "stateMutability": "view",
      "type": "function"
    },
    {
      "inputs": [],
      "name": "premiumPercent",
      "outputs": [
        {
          "internalType": "uint256",
          "name": "",
          "type": "uint256"
        }
      ],
      "stateMutability": "view",
      "type": "function"
    },
    {
      "inputs": [],
      "name": "premiumThreshold",
      "outputs": [
        {
          "internalType": "uint256",
          "name": "",
          "type": "uint256"
        }
      ],
      "stateMutability": "view",
      "type": "function"
    },
    {
      "inputs": [],
      "name": "previousEpochKittyPrice",
      "outputs": [
        {
          "internalType": "uint256",
          "name": "",
          "type": "uint256"
        }
      ],
      "stateMutability": "view",
      "type": "function"
    },
    {
      "inputs": [
        {
          "internalType": "uint256",
          "name": "_bondAmount",
          "type": "uint256"
        },
        {
          "internalType": "uint256",
          "name": "targetPrice",
          "type": "uint256"
        }
      ],
      "name": "redeemBonds",
      "outputs": [],
      "stateMutability": "nonpayable",
      "type": "function"
    },
    {
      "inputs": [],
      "name": "seigniorageExpansionFloorPercent",
      "outputs": [
        {
          "internalType": "uint256",
          "name": "",
          "type": "uint256"
        }
      ],
      "stateMutability": "view",
      "type": "function"
    },
    {
      "inputs": [],
      "name": "seigniorageSaved",
      "outputs": [
        {
          "internalType": "uint256",
          "name": "",
          "type": "uint256"
        }
      ],
      "stateMutability": "view",
      "type": "function"
    },
    {
      "inputs": [
        {
          "internalType": "uint256",
          "name": "_bondDepletionFloorPercent",
          "type": "uint256"
        }
      ],
      "name": "setBondDepletionFloorPercent",
      "outputs": [],
      "stateMutability": "nonpayable",
      "type": "function"
    },
    {
      "inputs": [
        {
          "internalType": "uint256",
          "name": "_bootstrapEpochs",
          "type": "uint256"
        },
        {
          "internalType": "uint256",
          "name": "_bootstrapSupplyExpansionPercent",
          "type": "uint256"
        }
      ],
      "name": "setBootstrap",
      "outputs": [],
      "stateMutability": "nonpayable",
      "type": "function"
    },
    {
      "inputs": [
        {
          "internalType": "uint256",
          "name": "_discountPercent",
          "type": "uint256"
        }
      ],
      "name": "setDiscountPercent",
      "outputs": [],
      "stateMutability": "nonpayable",
      "type": "function"
    },
    {
      "inputs": [
        {
          "internalType": "address",
          "name": "_daoFund",
          "type": "address"
        },
        {
          "internalType": "uint256",
          "name": "_daoFundSharedPercent",
          "type": "uint256"
        },
        {
          "internalType": "address",
          "name": "_devFund",
          "type": "address"
        },
        {
          "internalType": "uint256",
          "name": "_devFundSharedPercent",
          "type": "uint256"
        },
        {
          "internalType": "address",
          "name": "_team1Fund",
          "type": "address"
        },
        {
          "internalType": "uint256",
          "name": "_team1FundSharedPercent",
          "type": "uint256"
        }
      ],
      "name": "setExtraFunds",
      "outputs": [],
      "stateMutability": "nonpayable",
      "type": "function"
    },
    {
      "inputs": [
        {
          "internalType": "address",
          "name": "_kittyOracle",
          "type": "address"
        }
      ],
      "name": "setKittyOracle",
      "outputs": [],
      "stateMutability": "nonpayable",
      "type": "function"
    },
    {
      "inputs": [
        {
          "internalType": "uint256",
          "name": "_kittyPriceCeiling",
          "type": "uint256"
        }
      ],
      "name": "setKittyPriceCeiling",
      "outputs": [],
      "stateMutability": "nonpayable",
      "type": "function"
    },
    {
      "inputs": [
        {
          "internalType": "uint256",
          "name": "_maxDebtRatioPercent",
          "type": "uint256"
        }
      ],
      "name": "setMaxDebtRatioPercent",
      "outputs": [],
      "stateMutability": "nonpayable",
      "type": "function"
    },
    {
      "inputs": [
        {
          "internalType": "uint256",
          "name": "_maxDiscountRate",
          "type": "uint256"
        }
      ],
      "name": "setMaxDiscountRate",
      "outputs": [],
      "stateMutability": "nonpayable",
      "type": "function"
    },
    {
      "inputs": [
        {
          "internalType": "uint8",
          "name": "_index",
          "type": "uint8"
        },
        {
          "internalType": "uint256",
          "name": "_value",
          "type": "uint256"
        }
      ],
      "name": "setMaxExpansionTiersEntry",
      "outputs": [
        {
          "internalType": "bool",
          "name": "",
          "type": "bool"
        }
      ],
      "stateMutability": "nonpayable",
      "type": "function"
    },
    {
      "inputs": [
        {
          "internalType": "uint256",
          "name": "_maxPremiumRate",
          "type": "uint256"
        }
      ],
      "name": "setMaxPremiumRate",
      "outputs": [],
      "stateMutability": "nonpayable",
      "type": "function"
    },
    {
      "inputs": [
        {
          "internalType": "uint256",
          "name": "_maxSupplyContractionPercent",
          "type": "uint256"
        }
      ],
      "name": "setMaxSupplyContractionPercent",
      "outputs": [],
      "stateMutability": "nonpayable",
      "type": "function"
    },
    {
      "inputs": [
        {
          "internalType": "uint256",
          "name": "_maxSupplyExpansionPercent",
          "type": "uint256"
        }
      ],
      "name": "setMaxSupplyExpansionPercents",
      "outputs": [],
      "stateMutability": "nonpayable",
      "type": "function"
    },
    {
      "inputs": [
        {
          "internalType": "uint256",
          "name": "_mintingFactorForPayingDebt",
          "type": "uint256"
        }
      ],
      "name": "setMintingFactorForPayingDebt",
      "outputs": [],
      "stateMutability": "nonpayable",
      "type": "function"
    },
    {
      "inputs": [
        {
          "internalType": "address",
          "name": "_nursery",
          "type": "address"
        }
      ],
      "name": "setNursery",
      "outputs": [],
      "stateMutability": "nonpayable",
      "type": "function"
    },
    {
      "inputs": [
        {
          "internalType": "address",
          "name": "_operator",
          "type": "address"
        }
      ],
      "name": "setOperator",
      "outputs": [],
      "stateMutability": "nonpayable",
      "type": "function"
    },
    {
      "inputs": [
        {
          "internalType": "uint256",
          "name": "_premiumPercent",
          "type": "uint256"
        }
      ],
      "name": "setPremiumPercent",
      "outputs": [],
      "stateMutability": "nonpayable",
      "type": "function"
    },
    {
      "inputs": [
        {
          "internalType": "uint256",
          "name": "_premiumThreshold",
          "type": "uint256"
        }
      ],
      "name": "setPremiumThreshold",
      "outputs": [],
      "stateMutability": "nonpayable",
      "type": "function"
    },
    {
      "inputs": [
        {
          "internalType": "uint8",
          "name": "_index",
          "type": "uint8"
        },
        {
          "internalType": "uint256",
          "name": "_value",
          "type": "uint256"
        }
      ],
      "name": "setSupplyTiersEntry",
      "outputs": [
        {
          "internalType": "bool",
          "name": "",
          "type": "bool"
        }
      ],
      "stateMutability": "nonpayable",
      "type": "function"
    },
    {
      "inputs": [],
      "name": "startTime",
      "outputs": [
        {
          "internalType": "uint256",
          "name": "",
          "type": "uint256"
        }
      ],
      "stateMutability": "view",
      "type": "function"
    },
    {
      "inputs": [
        {
          "internalType": "uint256",
          "name": "",
          "type": "uint256"
        }
      ],
      "name": "supplyTiers",
      "outputs": [
        {
          "internalType": "uint256",
          "name": "",
          "type": "uint256"
        }
      ],
      "stateMutability": "view",
      "type": "function"
    },
    {
      "inputs": [],
      "name": "team1Fund",
      "outputs": [
        {
          "internalType": "address",
          "name": "",
          "type": "address"
        }
      ],
      "stateMutability": "view",
      "type": "function"
    },
    {
      "inputs": [],
      "name": "team1FundSharedPercent",
      "outputs": [
        {
          "internalType": "uint256",
          "name": "",
          "type": "uint256"
        }
      ],
      "stateMutability": "view",
      "type": "function"
    }
  ],
  "transactionHash": "0x05d03eaf944a31bffa1e0bb6ce2cd7242a5b5bf18209c2a1364be6ce1c1c2b32",
  "args": [],
  "solcInputHash": "d63e44ed8deab339d0eca9c31360ed01",
  "bytecode": "0x60806040526001805460ff60a01b191690556000600381905560045534801561002757600080fd5b5061477f806100376000396000f3fe608060405234801561001057600080fd5b50600436106104335760003560e01c8063896e3dba11610236578063b3ab15fb1161013b578063cecce38e116100c3578063dbf88c3611610087578063dbf88c36146109c2578063e90b2454146109ca578063f14698de146109d2578063f7a6f5bb146109da578063fcb6f008146109e257610433565b8063cecce38e14610939578063d4b1494414610956578063d5ec9d4f1461097c578063d98f2495146109b2578063da3ed419146109ba57610433565b8063bc94cf431161010a578063bc94cf43146108d5578063bd648a99146108fb578063c5967c2614610921578063c8412d0214610929578063c8f987f31461093157610433565b8063b3ab15fb14610897578063b4d1d795146108bd578063b8a878f9146108c5578063b925fed8146108cd57610433565b806399820025116101be578063a204452b1161018d578063a204452b1461085a578063a575c6c614610877578063a77a79951461087f578063a96c50d814610887578063ad9c88341461088f57610433565b806399820025146107fb5780639beb31df14610818578063a03670d114610820578063a0487eea1461083d57610433565b8063900cf0cf11610205578063900cf0cf1461074157806391bbfed514610749578063940e60641461076c57806395b6ef0c1461079257806398b762a1146107de57610433565b8063896e3dba146106dc5780638c664db6146106ff5780638d5eed291461071c5780638d934f741461073957610433565b806340af7ba51161033c578063591663e1116102c457806372c054f91161029357806372c054f9146106b457806378e97925146106bc57806381d11eaf146106c4578063841407f0146106cc578063874106cc146106d457610433565b8063591663e11461067f57806359bf5d391461069c5780635a0fc79c146106a45780635b756179146106ac57610433565b8063499f3f191161030b578063499f3f19146105f957806354575af41461061657806354f04a111461064c57806355ebdeef1461066f578063570ca7351461067757610433565b806340af7ba5146105a657806341f329dd146105c35780634390d2a8146105cb57806347da0031146105d357610433565b80631b0fb35f116103bf5780632a2469a01161038e5780632a2469a01461057e5780632e9c7b6514610586578063392e53cd1461058e5780633dc0cd7c146105965780634013a08e1461059e57610433565b80631b0fb35f1461051e57806322f832cd1461056657806326c581c71461056e57806329ef19191461057657610433565b80630cf60175116104065780630cf60175146104b25780630db7eb0b146104ba578063118ebbf9146104c2578063154ec2db146104e5578063158ef93e1461050257610433565b806303be7e761461043857806304e5c7b1146104525780630b5bcec7146104715780630baccd751461048e575b600080fd5b6104406109ea565b60408051918252519081900360200190f35b61046f6004803603602081101561046857600080fd5b50356109f0565b005b61046f6004803603602081101561048757600080fd5b5035610abf565b610496610b5b565b604080516001600160a01b039092168252519081900360200190f35b610440610b6a565b610440610c1c565b61046f600480360360408110156104d857600080fd5b5080359060200135610cbe565b61046f600480360360208110156104fb57600080fd5b503561131b565b61050a6113c0565b604080519115158252519081900360200190f35b61046f600480360360c081101561053457600080fd5b506001600160a01b03813581169160208101359160408201358116916060810135916080820135169060a001356113d0565b610440611606565b61044061160c565b610440611698565b61044061169e565b6104406117a5565b61050a6117ab565b6104966117bb565b6104406117ca565b61046f600480360360208110156105bc57600080fd5b50356117d0565b610440611875565b610496611952565b61046f600480360360208110156105e957600080fd5b50356001600160a01b0316611961565b61046f6004803603602081101561060f57600080fd5b5035611a13565b61046f6004803603606081101561062c57600080fd5b506001600160a01b03813581169160208101359160409091013516611ab0565b61046f6004803603604081101561066257600080fd5b5080359060200135611bf4565b610440612333565b610496612339565b61046f6004803603602081101561069557600080fd5b5035612348565b6104406123ea565b6104406123f0565b61046f6123f6565b610440612aa8565b610440612b60565b610440612b66565b610440612b6c565b610440612b72565b61046f600480360360408110156106f257600080fd5b5080359060200135612b78565b61046f6004803603602081101561071557600080fd5b5035612c31565b61046f6004803603602081101561073257600080fd5b5035612cd3565b610496612d8d565b610440612d9c565b61046f6004803603604081101561075f57600080fd5b5080359060200135612da2565b61050a6004803603604081101561078257600080fd5b5060ff8135169060200135612e9a565b61046f600480360360c08110156107a857600080fd5b506001600160a01b0381358116916020810135821691604082013581169160608101358216916080820135169060a00135612fb6565b61046f600480360360208110156107f457600080fd5b503561329e565b6104406004803603602081101561081157600080fd5b50356132ec565b61049661330a565b61046f6004803603602081101561083657600080fd5b5035613319565b6104406004803603602081101561085357600080fd5b50356133af565b61046f6004803603602081101561087057600080fd5b50356133bc565b61044061340a565b610496613410565b61044061341f565b610440613425565b61046f600480360360208110156108ad57600080fd5b50356001600160a01b031661342b565b610440613496565b61044061349c565b6104966134a2565b61046f600480360360208110156108eb57600080fd5b50356001600160a01b03166134b1565b61046f6004803603602081101561091157600080fd5b50356001600160a01b031661351c565b610440613587565b6104406135b1565b6104406135b7565b61046f6004803603602081101561094f57600080fd5b50356135bd565b61050a6004803603604081101561096c57600080fd5b5060ff813516906020013561365e565b61046f6004803603606081101561099257600080fd5b506001600160a01b03813581169160208101359160409091013516613758565b61044061381b565b610440613821565b610496613827565b610440613836565b61044061383c565b610440613842565b6104406138a4565b60205481565b6001546001600160a01b03163314610a395760405162461bcd60e51b81526004018080602001828103825260248152602001806146156024913960400191505060405180910390fd5b600b54811015610a7a5760405162461bcd60e51b815260040180806020018281038252602b8152602001806144e8602b913960400191505060405180910390fd5b6096811115610aba5760405162461bcd60e51b81526004018080602001828103825260248152602001806144796024913960400191505060405180910390fd5b601a55565b6001546001600160a01b03163314610b085760405162461bcd60e51b81526004018080602001828103825260248152602001806146156024913960400191505060405180910390fd5b600a8110158015610b1b57506103e88111155b610b565760405162461bcd60e51b81526004018080602001828103825260288152602001806145c46028913960400191505060405180910390fd5b600f55565b6005546001600160a01b031681565b600080610b75611875565b9050600a548111610c1857601954610b9157600a549150610c18565b6000610bba82610bb4670de0b6b3a7640000600a546138aa90919063ffffffff16565b9061390a565b90506000610be5612710610bb4601954610bdf600a548761397190919063ffffffff16565b906138aa565b600a54909150610bf590826139ce565b93506000601754118015610c0a575060175484115b15610c155760175493505b50505b5090565b600080610c27611875565b9050600b54811115610c18576000610c516064610bb4601a54600a546138aa90919063ffffffff16565b9050808210610cb3576000610c7d612710610bb4601b54610bdf600a548861397190919063ffffffff16565b600a54909150610c8d90826139ce565b93506000601854118015610ca2575060185484115b15610cad5760185493505b50610cb9565b600a5492505b505090565b610cc6613a28565b15610d025760405162461bcd60e51b81526004018080602001828103825260268152602001806146966026913960400191505060405180910390fd5b610d0a613a47565b15610d465760405162461bcd60e51b81526004018080602001828103825260268152602001806146966026913960400191505060405180910390fd5b600254421015610d99576040805162461bcd60e51b8152602060048201526019602482015278151c99585cdd5c9e4e881b9bdd081cdd185c9d1959081e595d603a1b604482015290519081900360640190fd5b6005546040805163570ca73560e01b8152905130926001600160a01b03169163570ca735916004808301926020929190829003018186803b158015610ddd57600080fd5b505afa158015610df1573d6000803e3d6000fd5b505050506040513d6020811015610e0757600080fd5b50516001600160a01b0316148015610e9557506006546040805163570ca73560e01b8152905130926001600160a01b03169163570ca735916004808301926020929190829003018186803b158015610e5e57600080fd5b505afa158015610e72573d6000803e3d6000fd5b505050506040513d6020811015610e8857600080fd5b50516001600160a01b0316145b8015610f1757506007546040805163570ca73560e01b8152905130926001600160a01b03169163570ca735916004808301926020929190829003018186803b158015610ee057600080fd5b505afa158015610ef4573d6000803e3d6000fd5b505050506040513d6020811015610f0a57600080fd5b50516001600160a01b0316145b8015610f9957506008546040805163570ca73560e01b8152905130926001600160a01b03169163570ca735916004808301926020929190829003018186803b158015610f6257600080fd5b505afa158015610f76573d6000803e3d6000fd5b505050506040513d6020811015610f8c57600080fd5b50516001600160a01b0316145b610fea576040805162461bcd60e51b815260206004820152601e60248201527f54726561737572793a206e656564206d6f7265207065726d697373696f6e0000604482015290519081900360640190fd5b600082116110295760405162461bcd60e51b815260040180806020018281038252602e81526020018061444b602e913960400191505060405180910390fd5b6000611033611875565b9050818114611089576040805162461bcd60e51b815260206004820152601b60248201527f54726561737572793a204b49545459207072696365206d6f7665640000000000604482015290519081900360640190fd5b600b5481116110c95760405162461bcd60e51b81526004018080602001828103825260338152602001806146396033913960400191505060405180910390fd5b60006110d3610c1c565b90506000811161112a576040805162461bcd60e51b815260206004820152601b60248201527f54726561737572793a20696e76616c696420626f6e6420726174650000000000604482015290519081900360640190fd5b6000611142670de0b6b3a7640000610bb487856138aa565b600554604080516370a0823160e01b8152306004820152905192935083926001600160a01b03909216916370a0823191602480820192602092909190829003018186803b15801561119257600080fd5b505afa1580156111a6573d6000803e3d6000fd5b505050506040513d60208110156111bc57600080fd5b505110156111fb5760405162461bcd60e51b81526004018080602001828103825260258152602001806144c36025913960400191505060405180910390fd5b61121361120a600c5483613a66565b600c5490613971565b600c556006546040805163079cc67960e41b81523360048201526024810188905290516001600160a01b03909216916379cc67909160448082019260009290919082900301818387803b15801561126957600080fd5b505af115801561127d573d6000803e3d6000fd5b505060055461129992506001600160a01b031690503383613a7c565b6112a1613ace565b6040805182815260208101879052815133927f51e0d16595cabc591e64da08e45bb223577e5b9a39cd947b4ddc3472b2dd8878928290030190a25050436000908152602081815260408083203284529091528082208054600160ff1991821681179092553384529190922080549091169091179055505050565b6001546001600160a01b031633146113645760405162461bcd60e51b81526004018080602001828103825260248152602001806146156024913960400191505060405180910390fd5b614e208111156113bb576040805162461bcd60e51b815260206004820152601d60248201527f5f646973636f756e7450657263656e74206973206f7665722032303025000000604482015290519081900360640190fd5b601955565b600154600160a01b900460ff1681565b6001546001600160a01b031633146114195760405162461bcd60e51b81526004018080602001828103825260248152602001806146156024913960400191505060405180910390fd5b6001600160a01b03861661145d576040805162461bcd60e51b815260206004808301919091526024820152637a65726f60e01b604482015290519081900360640190fd5b610bb88511156114a3576040805162461bcd60e51b815260206004820152600c60248201526b6f7574206f662072616e676560a01b604482015290519081900360640190fd5b6001600160a01b0384166114e7576040805162461bcd60e51b815260206004808301919091526024820152637a65726f60e01b604482015290519081900360640190fd5b6101f483111561152d576040805162461bcd60e51b815260206004820152600c60248201526b6f7574206f662072616e676560a01b604482015290519081900360640190fd5b6001600160a01b038216611571576040805162461bcd60e51b815260206004808301919091526024820152637a65726f60e01b604482015290519081900360640190fd5b6101f48111156115b7576040805162461bcd60e51b815260206004820152600c60248201526b6f7574206f662072616e676560a01b604482015290519081900360640190fd5b601d80546001600160a01b03199081166001600160a01b0398891617909155601e95909555601f8054861694871694909417909355602091909155602180549093169316929092179055602255565b60115481565b600554604080516318160ddd60e01b815290516000926001600160a01b031691839183916318160ddd916004808301926020929190829003018186803b15801561165557600080fd5b505afa158015611669573d6000803e3d6000fd5b505050506040513d602081101561167f57600080fd5b50519050600061168f8282613971565b93505050505b90565b60195481565b6000806116a9611875565b9050600a548111610c185760006116be61160c565b905060006116dd612710610bb4601354856138aa90919063ffffffff16565b90506000600660009054906101000a90046001600160a01b03166001600160a01b03166318160ddd6040518163ffffffff1660e01b815260040160206040518083038186803b15801561172f57600080fd5b505afa158015611743573d6000803e3d6000fd5b505050506040513d602081101561175957600080fd5b505190508082111561179e5760006117718383613971565b9050600061178b670de0b6b3a7640000610bb484896138aa565b905061179960045482613a66565b965050505b5050505090565b60185481565b600154600160a01b900460ff1690565b6008546001600160a01b031681565b601c5481565b6001546001600160a01b031633146118195760405162461bcd60e51b81526004018080602001828103825260248152602001806146156024913960400191505060405180910390fd5b614e20811115611870576040805162461bcd60e51b815260206004820152601c60248201527f5f7072656d69756d50657263656e74206973206f766572203230302500000000604482015290519081900360640190fd5b601b55565b60095460055460408051633ddac95360e01b81526001600160a01b039283166004820152670de0b6b3a7640000602482015290516000939290921691633ddac95391604480820192602092909190829003018186803b1580156118d757600080fd5b505afa9250505080156118fc57506040513d60208110156118f757600080fd5b505160015b6119375760405162461bcd60e51b81526004018080602001828103825260378152602001806145136037913960400191505060405180910390fd5b71ffffffffffffffffffffffffffffffffffff169050611695565b601f546001600160a01b031681565b6001546001600160a01b031633146119aa5760405162461bcd60e51b81526004018080602001828103825260248152602001806146156024913960400191505060405180910390fd5b6008546040805163b3ab15fb60e01b81526001600160a01b0384811660048301529151919092169163b3ab15fb91602480830192600092919082900301818387803b1580156119f857600080fd5b505af1158015611a0c573d6000803e3d6000fd5b5050505050565b6001546001600160a01b03163314611a5c5760405162461bcd60e51b81526004018080602001828103825260248152602001806146156024913960400191505060405180910390fd5b6127108110158015611a705750614e208111155b611aab5760405162461bcd60e51b815260040180806020018281038252602981526020018061459b6029913960400191505060405180910390fd5b601c55565b6001546001600160a01b03163314611af95760405162461bcd60e51b81526004018080602001828103825260248152602001806146156024913960400191505060405180910390fd5b6005546001600160a01b0384811691161415611b44576040805162461bcd60e51b81526020600482015260056024820152646b6974747960d81b604482015290519081900360640190fd5b6006546001600160a01b0384811691161415611b90576040805162461bcd60e51b81526020600480830191909152602482015263189bdb9960e21b604482015290519081900360640190fd5b6007546001600160a01b0384811691161415611bdb576040805162461bcd60e51b8152602060048201526005602482015264736861726560d81b604482015290519081900360640190fd5b611bef6001600160a01b0384168284613a7c565b505050565b611bfc613a28565b15611c385760405162461bcd60e51b81526004018080602001828103825260268152602001806146966026913960400191505060405180910390fd5b611c40613a47565b15611c7c5760405162461bcd60e51b81526004018080602001828103825260268152602001806146966026913960400191505060405180910390fd5b600254421015611ccf576040805162461bcd60e51b8152602060048201526019602482015278151c99585cdd5c9e4e881b9bdd081cdd185c9d1959081e595d603a1b604482015290519081900360640190fd5b6005546040805163570ca73560e01b8152905130926001600160a01b03169163570ca735916004808301926020929190829003018186803b158015611d1357600080fd5b505afa158015611d27573d6000803e3d6000fd5b505050506040513d6020811015611d3d57600080fd5b50516001600160a01b0316148015611dcb57506006546040805163570ca73560e01b8152905130926001600160a01b03169163570ca735916004808301926020929190829003018186803b158015611d9457600080fd5b505afa158015611da8573d6000803e3d6000fd5b505050506040513d6020811015611dbe57600080fd5b50516001600160a01b0316145b8015611e4d57506007546040805163570ca73560e01b8152905130926001600160a01b03169163570ca735916004808301926020929190829003018186803b158015611e1657600080fd5b505afa158015611e2a573d6000803e3d6000fd5b505050506040513d6020811015611e4057600080fd5b50516001600160a01b0316145b8015611ecf57506008546040805163570ca73560e01b8152905130926001600160a01b03169163570ca735916004808301926020929190829003018186803b158015611e9857600080fd5b505afa158015611eac573d6000803e3d6000fd5b505050506040513d6020811015611ec257600080fd5b50516001600160a01b0316145b611f20576040805162461bcd60e51b815260206004820152601e60248201527f54726561737572793a206e656564206d6f7265207065726d697373696f6e0000604482015290519081900360640190fd5b60008211611f5f5760405162461bcd60e51b815260040180806020018281038252603081526020018061456b6030913960400191505060405180910390fd5b6000611f69611875565b9050818114611fbf576040805162461bcd60e51b815260206004820152601b60248201527f54726561737572793a204b49545459207072696365206d6f7665640000000000604482015290519081900360640190fd5b600a548110611fff5760405162461bcd60e51b81526004018080602001828103825260338152602001806146396033913960400191505060405180910390fd5b6004548311156120405760405162461bcd60e51b815260040180806020018281038252602a8152602001806146f2602a913960400191505060405180910390fd5b600061204a610b6a565b9050600081116120a1576040805162461bcd60e51b815260206004820152601b60248201527f54726561737572793a20696e76616c696420626f6e6420726174650000000000604482015290519081900360640190fd5b60006120b9670de0b6b3a7640000610bb487856138aa565b905060006120c561160c565b9050600061214d83600660009054906101000a90046001600160a01b03166001600160a01b03166318160ddd6040518163ffffffff1660e01b815260040160206040518083038186803b15801561211b57600080fd5b505afa15801561212f573d6000803e3d6000fd5b505050506040513d602081101561214557600080fd5b5051906139ce565b905061216a612710610bb4601354856138aa90919063ffffffff16565b8111156121b4576040805162461bcd60e51b81526020600482015260136024820152726f766572206d6178206465627420726174696f60681b604482015290519081900360640190fd5b6005546040805163079cc67960e41b8152336004820152602481018a905290516001600160a01b03909216916379cc67909160448082019260009290919082900301818387803b15801561220757600080fd5b505af115801561221b573d6000803e3d6000fd5b5050600654604080516340c10f1960e01b81523360048201526024810188905290516001600160a01b0390921693506340c10f1992506044808201926020929091908290030181600087803b15801561227357600080fd5b505af1158015612287573d6000803e3d6000fd5b505050506040513d602081101561229d57600080fd5b50506004546122ac9088613971565b6004556122b7613ace565b6040805188815260208101859052815133927f73017f1b70789e2e66759eeb3c7ec11f59e6eedb55d921cfaec5410dd42a4799928290030190a25050436000908152602081815260408083203284529091528082208054600160ff19918216811790925533845291909220805490911690911790555050505050565b601e5481565b6001546001600160a01b031681565b6001546001600160a01b031633146123915760405162461bcd60e51b81526004018080602001828103825260248152602001806146156024913960400191505060405180910390fd5b6103e881101580156123a557506127108111155b6123e5576040805162461bcd60e51b815260206004820152600c60248201526b6f7574206f662072616e676560a01b604482015290519081900360640190fd5b601355565b600c5490565b600c5481565b6123fe613a28565b1561243a5760405162461bcd60e51b81526004018080602001828103825260268152602001806146966026913960400191505060405180910390fd5b612442613a47565b1561247e5760405162461bcd60e51b81526004018080602001828103825260268152602001806146966026913960400191505060405180910390fd5b6002544210156124d1576040805162461bcd60e51b8152602060048201526019602482015278151c99585cdd5c9e4e881b9bdd081cdd185c9d1959081e595d603a1b604482015290519081900360640190fd5b6124d9613587565b42101561252d576040805162461bcd60e51b815260206004820152601860248201527f54726561737572793a206e6f74206f70656e6564207965740000000000000000604482015290519081900360640190fd5b6005546040805163570ca73560e01b8152905130926001600160a01b03169163570ca735916004808301926020929190829003018186803b15801561257157600080fd5b505afa158015612585573d6000803e3d6000fd5b505050506040513d602081101561259b57600080fd5b50516001600160a01b031614801561262957506006546040805163570ca73560e01b8152905130926001600160a01b03169163570ca735916004808301926020929190829003018186803b1580156125f257600080fd5b505afa158015612606573d6000803e3d6000fd5b505050506040513d602081101561261c57600080fd5b50516001600160a01b0316145b80156126ab57506007546040805163570ca73560e01b8152905130926001600160a01b03169163570ca735916004808301926020929190829003018186803b15801561267457600080fd5b505afa158015612688573d6000803e3d6000fd5b505050506040513d602081101561269e57600080fd5b50516001600160a01b0316145b801561272d57506008546040805163570ca73560e01b8152905130926001600160a01b03169163570ca735916004808301926020929190829003018186803b1580156126f657600080fd5b505afa15801561270a573d6000803e3d6000fd5b505050506040513d602081101561272057600080fd5b50516001600160a01b0316145b61277e576040805162461bcd60e51b815260206004820152601e60248201527f54726561737572793a206e656564206d6f7265207065726d697373696f6e0000604482015290519081900360640190fd5b612786613ace565b61278e611875565b601655600c546000906127a9906127a361160c565b90613971565b905060145460035410156127df576127da6127d5612710610bb4601554856138aa90919063ffffffff16565b613b32565b612a2c565b600b546016541115612a2c57600654604080516318160ddd60e01b815290516000926001600160a01b0316916318160ddd916004808301926020929190829003018186803b15801561283057600080fd5b505afa158015612844573d6000803e3d6000fd5b505050506040513d602081101561285a57600080fd5b5051600a5460165491925060009161287191613971565b9050600080600061288b655af3107a4000610bdf88613f61565b905080841115612899578093505b6128b4612710610bb4601054886138aa90919063ffffffff16565b600c54106128d9576128d2670de0b6b3a7640000610bb488876138aa565b9150612945565b60006128f1670de0b6b3a7640000610bb489886138aa565b905061290e612710610bb4601154846138aa90919063ffffffff16565b925061291a8184613971565b601c549094501561294357612940612710610bb4601c54876138aa90919063ffffffff16565b93505b505b81156129545761295482613b32565b8215612a2657600c5461296790846139ce565b600c55600554604080516340c10f1960e01b81523060048201526024810186905290516001600160a01b03909216916340c10f19916044808201926020929091908290030181600087803b1580156129be57600080fd5b505af11580156129d2573d6000803e3d6000fd5b505050506040513d60208110156129e857600080fd5b5050604080514281526020810185905281517ff705142bf09f04297640495ddf7c59b7fd6f51894c5aea9602d631cf05f0efc2929181900390910190a15b50505050505b50600354612a3b9060016139ce565b600355600b54612a49611875565b11612a6757612a62612710610bb4601254610bdf61160c565b612a6a565b60005b600455436000908152602081815260408083203284529091528082208054600160ff1991821681179092553384529190922080549091169091179055565b600080612ab3611875565b9050600b54811115610c1857600554604080516370a0823160e01b815230600482015290516000926001600160a01b0316916370a08231916024808301926020929190829003018186803b158015612b0a57600080fd5b505afa158015612b1e573d6000803e3d6000fd5b505050506040513d6020811015612b3457600080fd5b505190506000612b42610c1c565b90508015610c155761168f81610bb484670de0b6b3a76400006138aa565b60025481565b60105481565b600a5481565b60155481565b6001546001600160a01b03163314612bc15760405162461bcd60e51b81526004018080602001828103825260248152602001806146156024913960400191505060405180910390fd5b60085460408051632ffaaa0960e01b8152600481018590526024810184905290516001600160a01b0390921691632ffaaa099160448082019260009290919082900301818387803b158015612c1557600080fd5b505af1158015612c29573d6000803e3d6000fd5b505050505050565b6001546001600160a01b03163314612c7a5760405162461bcd60e51b81526004018080602001828103825260248152602001806146156024913960400191505060405180910390fd5b6101f48110158015612c8e57506127108111155b612cce576040805162461bcd60e51b815260206004820152600c60248201526b6f7574206f662072616e676560a01b604482015290519081900360640190fd5b601055565b6001546001600160a01b03163314612d1c5760405162461bcd60e51b81526004018080602001828103825260248152602001806146156024913960400191505060405180910390fd5b600a548110158015612d485750612d446064610bb46078600a546138aa90919063ffffffff16565b8111155b612d88576040805162461bcd60e51b815260206004820152600c60248201526b6f7574206f662072616e676560a01b604482015290519081900360640190fd5b600b55565b601d546001600160a01b031681565b60035481565b6001546001600160a01b03163314612deb5760405162461bcd60e51b81526004018080602001828103825260248152602001806146156024913960400191505060405180910390fd5b6078821115612e41576040805162461bcd60e51b815260206004820152601e60248201527f5f626f6f74737472617045706f6368733a206f7574206f662072616e67650000604482015290519081900360640190fd5b60648110158015612e5457506103e88111155b612e8f5760405162461bcd60e51b815260040180806020018281038252602e81526020018061471c602e913960400191505060405180910390fd5b601491909155601555565b6001546000906001600160a01b03163314612ee65760405162461bcd60e51b81526004018080602001828103825260248152602001806146156024913960400191505060405180910390fd5b60098360ff1610612f285760405162461bcd60e51b81526004018080602001828103825260298152602001806145ec6029913960400191505060405180910390fd5b60ff831615612f5a57600d6001840360ff1681548110612f4457fe5b90600052602060002001548211612f5a57600080fd5b60088360ff161015612f8f57600d8360010160ff1681548110612f7957fe5b90600052602060002001548210612f8f57600080fd5b81600d8460ff1681548110612fa057fe5b6000918252602090912001555060015b92915050565b600154600160a01b900460ff1615613015576040805162461bcd60e51b815260206004820152601d60248201527f54726561737572793a20616c726561647920696e697469616c697a6564000000604482015290519081900360640190fd5b600580546001600160a01b03199081166001600160a01b0389811691909117909255600680548216888416179055600780548216878416179055600980548216868416179055600880549091169184169190911790556002819055670de0b6b3a7640000600a81905561309090606490610bb49060656138aa565b600b5560408051610120810182526000815269010f0cf064dd59200000602082015269021e19e0c9bab24000009181019190915269032d26d12e980b600000606082015269043c33c19375648000006080820152690a968163f0a57b40000060a082015269152d02c7e14af680000060c0820152692a5a058fc295ed00000060e08201526969e10de76676d080000061010082015261313390600d90600961439f565b5060408051610120810182526101c28152610190602082015261015e9181019190915261012c606082015260fa608082015260c860a0820152609660c0820152607d60e0820152606461010082015261319090600e9060096143f4565b50610190600f55612710601055610dac60115561012c601255611194601355606e601a55611b58601b5560006014556101c2601555600554604080516370a0823160e01b815230600482015290516001600160a01b03909216916370a0823191602480820192602092909190829003018186803b15801561321057600080fd5b505afa158015613224573d6000803e3d6000fd5b505050506040513d602081101561323a57600080fd5b5051600c55600180546001600160a01b031960ff60a01b19909116600160a01b1716339081179091556040805143815290517f25ff68dd81b34665b5ba7e553ee5511bf6812e12adb4a7e2c0d9e26b3099ce799181900360200190a2505050505050565b6001546001600160a01b031633146132e75760405162461bcd60e51b81526004018080602001828103825260248152602001806146156024913960400191505060405180910390fd5b601755565b600d81815481106132f957fe5b600091825260209091200154905081565b6007546001600160a01b031681565b6001546001600160a01b031633146133625760405162461bcd60e51b81526004018080602001828103825260248152602001806146156024913960400191505060405180910390fd5b600854604080516397ffe1d760e01b81526004810184905290516001600160a01b03909216916397ffe1d79160248082019260009290919082900301818387803b1580156119f857600080fd5b600e81815481106132f957fe5b6001546001600160a01b031633146134055760405162461bcd60e51b81526004018080602001828103825260248152602001806146156024913960400191505060405180910390fd5b601855565b60225481565b6021546001600160a01b031681565b600b5481565b60165481565b6001546001600160a01b031633146134745760405162461bcd60e51b81526004018080602001828103825260248152602001806146156024913960400191505060405180910390fd5b600180546001600160a01b0319166001600160a01b0392909216919091179055565b61546081565b60175481565b6009546001600160a01b031681565b6001546001600160a01b031633146134fa5760405162461bcd60e51b81526004018080602001828103825260248152602001806146156024913960400191505060405180910390fd5b600980546001600160a01b0319166001600160a01b0392909216919091179055565b6001546001600160a01b031633146135655760405162461bcd60e51b81526004018080602001828103825260248152602001806146156024913960400191505060405180910390fd5b600880546001600160a01b0319166001600160a01b0392909216919091179055565b60006135ac6135a36154606003546138aa90919063ffffffff16565b600254906139ce565b905090565b601b5481565b601a5481565b6001546001600160a01b031633146136065760405162461bcd60e51b81526004018080602001828103825260248152602001806146156024913960400191505060405180910390fd5b6064811015801561361957506105dc8111155b613659576040805162461bcd60e51b815260206004820152600c60248201526b6f7574206f662072616e676560a01b604482015290519081900360640190fd5b601255565b6001546000906001600160a01b031633146136aa5760405162461bcd60e51b81526004018080602001828103825260248152602001806146156024913960400191505060405180910390fd5b60098360ff16106136ec5760405162461bcd60e51b81526004018080602001828103825260298152602001806145ec6029913960400191505060405180910390fd5b600a82101580156136ff57506103e88211155b613747576040805162461bcd60e51b81526020600482015260146024820152735f76616c75653a206f7574206f662072616e676560601b604482015290519081900360640190fd5b81600e8460ff1681548110612fa057fe5b6001546001600160a01b031633146137a15760405162461bcd60e51b81526004018080602001828103825260248152602001806146156024913960400191505060405180910390fd5b60085460408051631515d6bd60e21b81526001600160a01b038681166004830152602482018690528481166044830152915191909216916354575af491606480830192600092919082900301818387803b1580156137fe57600080fd5b505af1158015613812573d6000803e3d6000fd5b50505050505050565b600f5481565b60135481565b6006546001600160a01b031681565b60125481565b60145481565b60095460055460408051630d01142560e31b81526001600160a01b039283166004820152670de0b6b3a7640000602482015290516000939290921691636808a12891604480820192602092909190829003018186803b1580156118d757600080fd5b60045481565b6000826138b957506000612fb0565b828202828482816138c657fe5b04146139035760405162461bcd60e51b815260040180806020018281038252602181526020018061454a6021913960400191505060405180910390fd5b9392505050565b6000808211613960576040805162461bcd60e51b815260206004820152601a60248201527f536166654d6174683a206469766973696f6e206279207a65726f000000000000604482015290519081900360640190fd5b81838161396957fe5b049392505050565b6000828211156139c8576040805162461bcd60e51b815260206004820152601e60248201527f536166654d6174683a207375627472616374696f6e206f766572666c6f770000604482015290519081900360640190fd5b50900390565b600082820183811015613903576040805162461bcd60e51b815260206004820152601b60248201527f536166654d6174683a206164646974696f6e206f766572666c6f770000000000604482015290519081900360640190fd5b4360009081526020818152604080832032845290915290205460ff1690565b4360009081526020818152604080832033845290915290205460ff1690565b6000818310613a755781613903565b5090919050565b604080516001600160a01b038416602482015260448082018490528251808303909101815260649091019091526020810180516001600160e01b031663a9059cbb60e01b179052611bef908490613fbe565b600960009054906101000a90046001600160a01b03166001600160a01b031663a2e620456040518163ffffffff1660e01b8152600401600060405180830381600087803b158015613b1e57600080fd5b505af1925050508015613b2f575060015b50565b600554604080516340c10f1960e01b81523060048201526024810184905290516001600160a01b03909216916340c10f19916044808201926020929091908290030181600087803b158015613b8657600080fd5b505af1158015613b9a573d6000803e3d6000fd5b505050506040513d6020811015613bb057600080fd5b5050601e5460009015613c9b57613bd8612710610bb4601e54856138aa90919063ffffffff16565b600554601d546040805163a9059cbb60e01b81526001600160a01b03928316600482015260248101859052905193945091169163a9059cbb916044808201926020929091908290030181600087803b158015613c3357600080fd5b505af1158015613c47573d6000803e3d6000fd5b505050506040513d6020811015613c5d57600080fd5b5050604080514281526020810183905281517fcb3f34aaa3445b461e6da5492dc89e5c257a59fa598131f3b6bbc97a3638e409929181900390910190a15b60205460009015613d8457613cc1612710610bb4602054866138aa90919063ffffffff16565b600554601f546040805163a9059cbb60e01b81526001600160a01b03928316600482015260248101859052905193945091169163a9059cbb916044808201926020929091908290030181600087803b158015613d1c57600080fd5b505af1158015613d30573d6000803e3d6000fd5b505050506040513d6020811015613d4657600080fd5b5050604080514281526020810183905281517fdc8b715b18523e58b7fd0da53259dfa91efd91df4a854d94b136e3333a3b9395929181900390910190a15b60225460009015613e6d57613daa612710610bb4602254876138aa90919063ffffffff16565b6005546021546040805163a9059cbb60e01b81526001600160a01b03928316600482015260248101859052905193945091169163a9059cbb916044808201926020929091908290030181600087803b158015613e0557600080fd5b505af1158015613e19573d6000803e3d6000fd5b505050506040513d6020811015613e2f57600080fd5b5050604080514281526020810183905281517f2dfe5937647c787f9c6bddefedb6b3273b627227b0493e9a83b5441fb11ee00c929181900390910190a15b613e7d816127a384818888613971565b600854600554919550613e9e916001600160a01b039081169116600061406f565b600854600554613ebb916001600160a01b0391821691168661406f565b600854604080516397ffe1d760e01b81526004810187905290516001600160a01b03909216916397ffe1d79160248082019260009290919082900301818387803b158015613f0857600080fd5b505af1158015613f1c573d6000803e3d6000fd5b5050604080514281526020810188905281517f25a6338ee05da389b8c2dfea3ea4e305f140bc4cbc63e4bd1d27cd7abf3c69559450908190039091019150a150505050565b600060085b600d8160ff1681548110613f7657fe5b90600052602060002001548310613fab57600e8160ff1681548110613f9757fe5b600091825260209091200154600f55613fb4565b60001901613f66565b5050600f54919050565b6060614013826040518060400160405280602081526020017f5361666545524332303a206c6f772d6c6576656c2063616c6c206661696c6564815250856001600160a01b03166141829092919063ffffffff16565b805190915015611bef5780806020019051602081101561403257600080fd5b5051611bef5760405162461bcd60e51b815260040180806020018281038252602a81526020018061466c602a913960400191505060405180910390fd5b8015806140f5575060408051636eb1769f60e11b81523060048201526001600160a01b03848116602483015291519185169163dd62ed3e91604480820192602092909190829003018186803b1580156140c757600080fd5b505afa1580156140db573d6000803e3d6000fd5b505050506040513d60208110156140f157600080fd5b5051155b6141305760405162461bcd60e51b81526004018080602001828103825260368152602001806146bc6036913960400191505060405180910390fd5b604080516001600160a01b038416602482015260448082018490528251808303909101815260649091019091526020810180516001600160e01b031663095ea7b360e01b179052611bef908490613fbe565b60606141918484600085614199565b949350505050565b6060824710156141da5760405162461bcd60e51b815260040180806020018281038252602681526020018061449d6026913960400191505060405180910390fd5b6141e3856142f5565b614234576040805162461bcd60e51b815260206004820152601d60248201527f416464726573733a2063616c6c20746f206e6f6e2d636f6e7472616374000000604482015290519081900360640190fd5b60006060866001600160a01b031685876040518082805190602001908083835b602083106142735780518252601f199092019160209182019101614254565b6001836020036101000a03801982511681845116808217855250505050505090500191505060006040518083038185875af1925050503d80600081146142d5576040519150601f19603f3d011682016040523d82523d6000602084013e6142da565b606091505b50915091506142ea8282866142fb565b979650505050505050565b3b151590565b6060831561430a575081613903565b82511561431a5782518084602001fd5b8160405162461bcd60e51b81526004018080602001828103825283818151815260200191508051906020019080838360005b8381101561436457818101518382015260200161434c565b50505050905090810190601f1680156143915780820380516001836020036101000a031916815260200191505b509250505060405180910390fd5b8280548282559060005260206000209081019282156143e8579160200282015b828111156143e8578251829069ffffffffffffffffffff169055916020019190600101906143bf565b50610c18929150614435565b8280548282559060005260206000209081019282156143e8579160200282015b828111156143e8578251829061ffff16905591602001919060010190614414565b5b80821115610c18576000815560010161443656fe54726561737572793a2063616e6e6f742072656465656d20626f6e64732077697468207a65726f20616d6f756e745f7072656d69756d5468726573686f6c6420697320686967686572207468616e20312e35416464726573733a20696e73756666696369656e742062616c616e636520666f722063616c6c54726561737572793a20747265617375727920686173206e6f206d6f7265206275646765745f7072656d69756d5468726573686f6c642065786365656473206b6974747950726963654365696c696e6754726561737572793a206661696c656420746f20636f6e73756c74204b495454592070726963652066726f6d20746865206f7261636c65536166654d6174683a206d756c7469706c69636174696f6e206f766572666c6f7754726561737572793a2063616e6e6f7420707572636861736520626f6e64732077697468207a65726f20616d6f756e745f6d696e74696e67466163746f72466f72506179696e67446562743a206f7574206f662072616e67655f6d6178537570706c79457870616e73696f6e50657263656e743a206f7574206f662072616e6765496e6465782068617320746f206265206c6f776572207468616e20636f756e74206f6620746965727354726561737572793a2063616c6c6572206973206e6f7420746865206f70657261746f7254726561737572793a206b697474795072696365206e6f7420656c696769626c6520666f7220626f6e642070757263686173655361666545524332303a204552433230206f7065726174696f6e20646964206e6f742073756363656564436f6e747261637447756172643a206f6e6520626c6f636b2c206f6e652066756e6374696f6e5361666545524332303a20617070726f76652066726f6d206e6f6e2d7a65726f20746f206e6f6e2d7a65726f20616c6c6f77616e636554726561737572793a206e6f7420656e6f75676820626f6e64206c65667420746f2070757263686173655f626f6f747374726170537570706c79457870616e73696f6e50657263656e743a206f7574206f662072616e6765a2646970667358221220a9d129c97f0cb891120aed10c69c0e9ee0d3c6cacbdad90f614f4984398ff8e364736f6c634300060c0033",
  "devdoc": {
    "kind": "dev",
    "methods": {},
    "version": 1
  },
  "userdoc": {
    "kind": "user",
    "methods": {},
    "version": 1
  },
  "storageLayout": {
    "storage": [
      {
        "astId": 13540,
        "contract": "contracts/Treasury.sol:Treasury",
        "label": "_status",
        "offset": 0,
        "slot": "0",
        "type": "t_mapping(t_uint256,t_mapping(t_address,t_bool))"
      },
      {
        "astId": 6028,
        "contract": "contracts/Treasury.sol:Treasury",
        "label": "operator",
        "offset": 0,
        "slot": "1",
        "type": "t_address"
      },
      {
        "astId": 6031,
        "contract": "contracts/Treasury.sol:Treasury",
        "label": "initialized",
        "offset": 20,
        "slot": "1",
        "type": "t_bool"
      },
      {
        "astId": 6033,
        "contract": "contracts/Treasury.sol:Treasury",
        "label": "startTime",
        "offset": 0,
        "slot": "2",
        "type": "t_uint256"
      },
      {
        "astId": 6036,
        "contract": "contracts/Treasury.sol:Treasury",
        "label": "epoch",
        "offset": 0,
        "slot": "3",
        "type": "t_uint256"
      },
      {
        "astId": 6039,
        "contract": "contracts/Treasury.sol:Treasury",
        "label": "epochSupplyContractionLeft",
        "offset": 0,
        "slot": "4",
        "type": "t_uint256"
      },
      {
        "astId": 6041,
        "contract": "contracts/Treasury.sol:Treasury",
        "label": "kitty",
        "offset": 0,
        "slot": "5",
        "type": "t_address"
      },
      {
        "astId": 6043,
        "contract": "contracts/Treasury.sol:Treasury",
        "label": "bbond",
        "offset": 0,
        "slot": "6",
        "type": "t_address"
      },
      {
        "astId": 6045,
        "contract": "contracts/Treasury.sol:Treasury",
        "label": "bshare",
        "offset": 0,
        "slot": "7",
        "type": "t_address"
      },
      {
        "astId": 6047,
        "contract": "contracts/Treasury.sol:Treasury",
        "label": "nursery",
        "offset": 0,
        "slot": "8",
        "type": "t_address"
      },
      {
        "astId": 6049,
        "contract": "contracts/Treasury.sol:Treasury",
        "label": "kittyOracle",
        "offset": 0,
        "slot": "9",
        "type": "t_address"
      },
      {
        "astId": 6051,
        "contract": "contracts/Treasury.sol:Treasury",
        "label": "kittyPriceOne",
        "offset": 0,
        "slot": "10",
        "type": "t_uint256"
      },
      {
        "astId": 6053,
        "contract": "contracts/Treasury.sol:Treasury",
        "label": "kittyPriceCeiling",
        "offset": 0,
        "slot": "11",
        "type": "t_uint256"
      },
      {
        "astId": 6055,
        "contract": "contracts/Treasury.sol:Treasury",
        "label": "seigniorageSaved",
        "offset": 0,
        "slot": "12",
        "type": "t_uint256"
      },
      {
        "astId": 6058,
        "contract": "contracts/Treasury.sol:Treasury",
        "label": "supplyTiers",
        "offset": 0,
        "slot": "13",
        "type": "t_array(t_uint256)dyn_storage"
      },
      {
        "astId": 6061,
        "contract": "contracts/Treasury.sol:Treasury",
        "label": "maxExpansionTiers",
        "offset": 0,
        "slot": "14",
        "type": "t_array(t_uint256)dyn_storage"
      },
      {
        "astId": 6063,
        "contract": "contracts/Treasury.sol:Treasury",
        "label": "maxSupplyExpansionPercent",
        "offset": 0,
        "slot": "15",
        "type": "t_uint256"
      },
      {
        "astId": 6065,
        "contract": "contracts/Treasury.sol:Treasury",
        "label": "bondDepletionFloorPercent",
        "offset": 0,
        "slot": "16",
        "type": "t_uint256"
      },
      {
        "astId": 6067,
        "contract": "contracts/Treasury.sol:Treasury",
        "label": "seigniorageExpansionFloorPercent",
        "offset": 0,
        "slot": "17",
        "type": "t_uint256"
      },
      {
        "astId": 6069,
        "contract": "contracts/Treasury.sol:Treasury",
        "label": "maxSupplyContractionPercent",
        "offset": 0,
        "slot": "18",
        "type": "t_uint256"
      },
      {
        "astId": 6071,
        "contract": "contracts/Treasury.sol:Treasury",
        "label": "maxDebtRatioPercent",
        "offset": 0,
        "slot": "19",
        "type": "t_uint256"
      },
      {
        "astId": 6073,
        "contract": "contracts/Treasury.sol:Treasury",
        "label": "bootstrapEpochs",
        "offset": 0,
        "slot": "20",
        "type": "t_uint256"
      },
      {
        "astId": 6075,
        "contract": "contracts/Treasury.sol:Treasury",
        "label": "bootstrapSupplyExpansionPercent",
        "offset": 0,
        "slot": "21",
        "type": "t_uint256"
      },
      {
        "astId": 6077,
        "contract": "contracts/Treasury.sol:Treasury",
        "label": "previousEpochKittyPrice",
        "offset": 0,
        "slot": "22",
        "type": "t_uint256"
      },
      {
        "astId": 6079,
        "contract": "contracts/Treasury.sol:Treasury",
        "label": "maxDiscountRate",
        "offset": 0,
        "slot": "23",
        "type": "t_uint256"
      },
      {
        "astId": 6081,
        "contract": "contracts/Treasury.sol:Treasury",
        "label": "maxPremiumRate",
        "offset": 0,
        "slot": "24",
        "type": "t_uint256"
      },
      {
        "astId": 6083,
        "contract": "contracts/Treasury.sol:Treasury",
        "label": "discountPercent",
        "offset": 0,
        "slot": "25",
        "type": "t_uint256"
      },
      {
        "astId": 6085,
        "contract": "contracts/Treasury.sol:Treasury",
        "label": "premiumThreshold",
        "offset": 0,
        "slot": "26",
        "type": "t_uint256"
      },
      {
        "astId": 6087,
        "contract": "contracts/Treasury.sol:Treasury",
        "label": "premiumPercent",
        "offset": 0,
        "slot": "27",
        "type": "t_uint256"
      },
      {
        "astId": 6089,
        "contract": "contracts/Treasury.sol:Treasury",
        "label": "mintingFactorForPayingDebt",
        "offset": 0,
        "slot": "28",
        "type": "t_uint256"
      },
      {
        "astId": 6091,
        "contract": "contracts/Treasury.sol:Treasury",
        "label": "daoFund",
        "offset": 0,
        "slot": "29",
        "type": "t_address"
      },
      {
        "astId": 6093,
        "contract": "contracts/Treasury.sol:Treasury",
        "label": "daoFundSharedPercent",
        "offset": 0,
        "slot": "30",
        "type": "t_uint256"
      },
      {
        "astId": 6095,
        "contract": "contracts/Treasury.sol:Treasury",
        "label": "devFund",
        "offset": 0,
        "slot": "31",
        "type": "t_address"
      },
      {
        "astId": 6097,
        "contract": "contracts/Treasury.sol:Treasury",
        "label": "devFundSharedPercent",
        "offset": 0,
        "slot": "32",
        "type": "t_uint256"
      },
      {
        "astId": 6099,
        "contract": "contracts/Treasury.sol:Treasury",
        "label": "team1Fund",
        "offset": 0,
        "slot": "33",
        "type": "t_address"
      },
      {
        "astId": 6101,
        "contract": "contracts/Treasury.sol:Treasury",
        "label": "team1FundSharedPercent",
        "offset": 0,
        "slot": "34",
        "type": "t_uint256"
      }
    ],
    "types": {
      "t_address": {
        "encoding": "inplace",
        "label": "address",
        "numberOfBytes": "20"
      },
      "t_array(t_uint256)dyn_storage": {
        "base": "t_uint256",
        "encoding": "dynamic_array",
        "label": "uint256[]",
        "numberOfBytes": "32"
      },
      "t_bool": {
        "encoding": "inplace",
        "label": "bool",
        "numberOfBytes": "1"
      },
      "t_mapping(t_address,t_bool)": {
        "encoding": "mapping",
        "key": "t_address",
        "label": "mapping(address => bool)",
        "numberOfBytes": "32",
        "value": "t_bool"
      },
      "t_mapping(t_uint256,t_mapping(t_address,t_bool))": {
        "encoding": "mapping",
        "key": "t_uint256",
        "label": "mapping(uint256 => mapping(address => bool))",
        "numberOfBytes": "32",
        "value": "t_mapping(t_address,t_bool)"
      },
      "t_uint256": {
        "encoding": "inplace",
        "label": "uint256",
        "numberOfBytes": "32"
      }
    }
  }
}